:100000000C94A2000C9441130C94BF000C94BF00FC
:100010000C94BF000C94BF000C94BF000C94BF0064
:100020000C94BF000C94BF000C94BF000C94BF0054
:100030000C94BF000C94BF000C94BF000C94BF0044
:100040000C94F7120C94BF000C94BF000C94BF00EA
:100050000C94BF000C94BF000C94BF000C94BF0024
:100060000C94BF000C94BF000FED032196979A9B50
:100070009D9E9FA6A7ABACADAEAFB2B3B4B5B6B7BD
:10008000B9BABBBCBDBEBFCBCDCECFD3D6D7D9DAE4
:10009000DBDCDDDEDFE5E6E7E9EAEBECEDEEEFF2F7
:1000A000F3F4F5F6F7F9FAFBFCFDFEFF000D0B0982
:1000B000070503010E0C0A080604020F00020103E3
:1000C000000201030008040C0020103020202053FF
:1000D0004449534B32204C43442020200020627975
:1000E000204170706C6520494920425220004D6FBC
:1000F000756E7465642000204469736B203A20009B
:100100004C6F6164696E67204469722E2E2E2E2E0C
:100110000053656C6563742061204469736B203AF9
:1001200020004C6F6164696E67202E2E2E2E2E2EBD
:100130002E2E002020204E6F2053442043617264F5
:100140002020200011241FBECFEFD8E0DEBFCDBF9E
:1001500011E0A0E0B1E0E4EBF7E202C005900D92FF
:10016000A031B107D9F718E0A0E1B1E001C01D92BC
:10017000A236B107E1F70E9424110C94D8130C9415
:100180000000459880FF02C0419A01C0419881FF5C
:1001900002C0439A01C0439882FF02C05C9A01C02A
:1001A0005C9883FF02C05D9A01C05D98459A89E022
:1001B0008A95F1F7459889E08A95F1F708951F939C
:1001C000182F599A449882958F700E94C100812FF0
:1001D0008F700E94C1001C7F29F084E991E0019793
:1001E000F1F704C082ED9CE20197F1F700C0000036
:1001F0001F9108951F93182F599A449A82958F70D2
:100200000E94C100812F8F700E94C10082EA92E09B
:100210000197F1F700C000001F91089544988FEAFC
:100220009EE1A4E081509040A040E1F700C00000B2
:1002300083E00E94C100A5EDB3E81197F1F700C07B
:10024000000083E00E94C10085ED93E80197F1F77B
:1002500000C0000083E00E94C100A5EDB3E8119743
:10026000F1F700C0000082E00E94C10085ED93E834
:100270000197F1F700C0000088E20E94DF0088E0EB
:100280000E94DF0081E00E94DF0082E00E94DF0028
:1002900086E00E94DF008CE00E94DF00089581E08C
:1002A0000E94DF0082E00E94DF0008958F7060FDF1
:1002B00002C0805801C080540E94DF0008950E944F
:1002C000FA000895CF93DF93EC0102C00E94FA0078
:1002D00089918823D9F7DF91CF910895CF93DF9348
:1002E000EC0102C00E94FA00FE012196849188234D
:1002F000C9F7DF91CF9108951F93CF93DF93EC015E
:10030000662349F40E944F0180E061E00E9456019B
:100310008EEE90E006C080E061E00E94560187EF1B
:1003200090E00E946E0118E089910E94FA0011503D
:10033000D9F7DF91CF911F9108952EE732E080E049
:1003400090E04EE551E00BC01192E217F307E1F7A0
:1003500001969F01225A3E4F8530910551F0849FAE
:10036000F001859FF00D949FF00D1124E05EFE4F8B
:10037000EBCF8FEF80931A018093130180931B01C1
:100380008093140180931C018093150180931D01BB
:100390008093160180931E01809317010895809128
:1003A000FA079091FB072CE08039920798F420E13E
:1003B0002BB930E305C04B990DC03BB92BB9019661
:1003C00040E180319407B8F380E99CE09093FB070B
:1003D0008093FA070895DF92EF92FF920F931F9395
:1003E000CF93DF93D82EC8E0D0E010E890E2E92E5A
:1003F00080E1F82E00E3812F8D2139F0FBB881E0F8
:1004000090E00E94E7120BB906C01BB881E090E0B3
:100410000E94E712EBB881E090E00E94E712169587
:10042000219749F71BB8DF91CF911F910F91FF9052
:10043000EF90DF90089528E030E090E860E250E12E
:1004400040E3792F782319F05BB94BB902C01BB890
:100450006BB9969521503040A1F71BB80895FF92D3
:100460000F931F93DF93CF930F92CDB7DEB780E149
:100470008BB981E090E00E94E712198210E020E33E
:10048000F22E00E111C0FBB881E090E00E94E7127B
:1004900089B1110F8170182B0BB981E090E00E9497
:1004A000E71289818F5F89838981883061F7812F85
:1004B0000F90CF91DF911F910F91FF900895DF93DF
:1004C000CF930F92CDB7DEB780E18BB9198280E070
:1004D00030E320E109C03BB999B1880F9170892BB5
:1004E0002BB999819F5F998399819830A1F70F90DB
:1004F000CF91DF9108950E945F024B9902C08F3F18
:10050000D1F708951F93DF93CF9300D000D0CDB7DC
:10051000DEB7182F8FEF4C835B836A8379830E9449
:10052000EB01812F805C0E94EB017981872F0E9473
:10053000EB016A81862F0E94EB015B81852F0E946F
:10054000EB014C81842F0E94EB0185E90E94EB01B5
:100550008FEF0E94EB010F900F900F900F90CF91B3
:10056000DF911F9108950E942F024B9903C087FDD0
:10057000FACF08958FEF08950E945F024B9903C050
:1005800087FDFACF08958FEF0895DF92EF92FF92E3
:100590000F931F93142FD72EE62EF52E082F005CF5
:1005A0008FEF0E941B02802F0E941B028D2D0E9444
:1005B0001B028E2D0E941B028F2D0E941B02812F79
:1005C0000E941B0285E90E941B028FEF0E941B0202
:1005D0000E94BC02882311F08F3F11F71F910F91E9
:1005E000FF90EF90DF900895AB01BC0181E10E9484
:1005F000C5020E945F024B9902C08E3FD1F7089559
:100600000F931F93CF93DF938C01EB0180E148E0C0
:1006100050E060E070E00E94C50235E0000F111F5D
:100620003A95E1F7B80180E090E02091130830910D
:1006300014084091150850911608620F731F841F0B
:10064000951F0E94F40208E00E945F028993015006
:10065000D9F70E945F020E945F02DF91CF911F9144
:100660000F9108952F923F924F925F926F927F92D7
:100670008F929F92AF92BF92CF92DF92EF92FF92B2
:100680000F931F93DF93CF93CDB7DEB769970FB664
:10069000F894DEBF0FBECDBF9E8B8D8B7B8B6A8B9C
:1006A0003A012C8BEE24FF24870144245524198A17
:1006B000188A812C62E0962EAA24BB2458E0252EAD
:1006C000312C2C0E3D1EA101485F5F4F588F4F8B80
:1006D0004B992BC180E141E050E060E070E00E9466
:1006E000C5026091130870911408809115089091CB
:1006F00016086E0D7F1D801F911F0E94F4020E943C
:100700005F02898F0E945F020E945F02998D992388
:1007100009F4C4C0953009F4C1C09E3209F4BEC0CA
:10072000953E09F4BBC0892F81548A3120F0905343
:100730009A3008F0B3C0609113087091140880914A
:10074000150890911608655F7F4F8F4F9F4F6E0D74
:100750007F1D801F911F0E94F4020E945F02898FFB
:100760000E945F020E945F02998D892F8E7109F0AD
:1007700095C09F3009F492C080E14CE050E060E009
:1007800070E00E94C5026091130870911408809176
:100790001508909116086E0D7F1D801F911F0E94F5
:1007A000F40261010E945F02D6018D936D01EF8911
:1007B000F88DAE17BF07B1F70E945F028D830E94CC
:1007C0005F028E830E945F028F834A895B89411595
:1007D000510551F00E945F028170880F880F880FC9
:1007E000AA89BB898C9302C00E945F020E945F02AB
:1007F0000E945F0280E144E050E060E070E00E940F
:10080000C5026091130870911408809115089091A9
:1008100016086A5E7F4F8F4F9F4F6E0D7F1D801FA2
:10082000911F0E94F4020E945F0289830E945F026E
:100830008A830E945F028B830E945F028C830E94E6
:100840005F020E945F02CE0105966D897E8943E0BA
:1008500050E00E94CB13009709F5BC89BB2359F0E7
:1008600061147104D9F0C101B30148E050E00E9465
:10087000CB13009799F429813A818B819C8148168A
:10088000590640F08415950549F4E889F9892E1731
:100890003F0720F045012C01398B288B0894A11CBF
:1008A000B11C80E290E0A0E0B0E0E80EF91E0A1F63
:1008B0001B1F90E0A91692E0B90609F009CFA0E04D
:1008C0008A16A2E09A0679F16114710461F1BC897B
:1008D000BB2349F580E148E050E060E070E00E9411
:1008E000C502B40145E0660F771F4A95E1F780E045
:1008F00090E0209113083091140840911508509110
:100900001608620F731F841F951F0E94F40218E0DF
:100910000E945F02F30181933F011150C9F70E94C9
:100920005F020E945F02940102C020E032E0C90130
:1009300069960FB6F894DEBF0FBECDBFCF91DF91A1
:100940001F910F91FF90EF90DF90CF90BF90AF90ED
:100950009F908F907F906F905F904F903F902F90DF
:1009600008954F925F926F927F928F929F92AF9273
:10097000BF92CF92DF92EF92FF920F931F93CF938C
:10098000DF93EC016B012A01122F4B9981C080E1AA
:1009900042E050E060E070E00E94C5026091130800
:1009A000709114088091150890911608665E7F4F2B
:1009B0008F4F9F4FF5E0CC0FDD1FFA95E1F79E01B9
:1009C000442737FD4095542F620F731F841F951FD6
:1009D0000E94F4020E945F02C82FD0E00E945F02D2
:1009E000382F20E0C20FD31F0E945F020E945F02D7
:1009F000112319F4F601D183C083EE24FF24902E35
:100A000088243CC00894E11CF11CC701692D782D95
:100A10000E94B8135C01062FBE0180E090E0660FD3
:100A2000771F881F991F2091050830910608409173
:100A3000070850910808620F731F841F951F0E94BA
:100A4000F4020E945F02C82FD0E00E945F02782E5D
:100A50006624C60DD71D0E945F020E945F02011727
:100A600039F4F501EE0FFF1FEC0DFD1DD183C0839E
:100A7000FFEFC73FDF0728F4101718F0E414F50460
:100A800008F280E140E052E060E070E00E94C502C0
:100A9000DF91CF911F910F91FF90EF90DF90CF905A
:100AA000BF90AF909F908F907F906F905F904F908E
:100AB0000895262F372FF901282F392FD90180E0EB
:100AC00090E003C021912D93019684179507D0F3F0
:100AD00008954F925F926F927F928F929F92AF9202
:100AE000BF92CF92DF92EF92FF920F931F93CF931B
:100AF000DF934B015C012A0139014B9950C080E121
:100B000040E052E060E070E00E94C502C12CAEEF10
:100B1000DA2EAFEFEA2EAFEFFA2EC820D920EA2066
:100B2000FB20C701B6010E94F402C0E2D1E08E01B1
:100B30000E945F02F80181938F01F3E000321F07EA
:100B4000B9F70E945F020E945F02C4019170805E4B
:100B50009E4FB201A3010E94590582E08BB91BB8D8
:100B600088E1B701A6010E94C5028FEF0E941B0217
:100B70008EEF0E941B0289910E941B0283E0C0320B
:100B8000D807C9F78FEF0E941B028FEF0E941B024C
:100B90000E945F020E947B0282E08BB91BB8DF914A
:100BA000CF911F910F91FF90EF90DF90CF90BF906A
:100BB000AF909F908F907F906F905F904F9008952F
:100BC0009F92AF92BF92CF92DF92EF92FF920F93DC
:100BD0001F93CF93DF93C0900508D0900608E09054
:100BE0000708F09008084B9962C080E140E052E0AD
:100BF00060E070E00E94C502AA24BB2412E0912E9E
:100C00004EC0C701B6010E94F402C0E2D1E08E01DD
:100C10000E945F02D8018D938D01B3E000321B0763
:100C2000B9F70E945F020E945F029BB81BB8409117
:100C3000FC075091FD0760E070E0B9E0440F551FDC
:100C4000661F771FBA95D1F74C0D5D1D6E1D7F1D78
:100C500088E10E94C5028FEF0E941B028EEF0E9466
:100C60001B0289910E941B02E3E0C032DE07C9F734
:100C70008FEF0E941B028FEF0E941B020E945F02F7
:100C80000E947B0280E092E0A0E0B0E0C80ED91E96
:100C9000EA1EFB1E9BB81BB80894A11CB11C8091D6
:100CA000FC079091FD07A816B90608F4AACFDF91BA
:100CB000CF911F910F91FF90EF90DF90CF90BF9059
:100CC000AF909F9008953F924F925F926F927F9264
:100CD0008F929F92AF92BF92CF92DF92EF92FF924C
:100CE0000F931F93DF93CF93CDB7DEB7A4970FB6C3
:100CF000F894DEBF0FBECDBF9C017B014A014B992A
:100D000033C1FE013596CE0185961192E817F90799
:100D1000E1F78E010B5F1F4FC801B90148E050E0B9
:100D20000E945905CE010D96B70143E050E00E94A4
:100D30005905C401A0E0B0E049E0880F991FAA1F3F
:100D4000BB1F4A95D1F7F801848F958FA68FB78F77
:100D5000EE24FF248701CC24DD2480E141E050E033
:100D600060E070E00E94C502609113087091140861
:100D700080911508909116086E0D7F1D801F911FA0
:100D80000E94F4020E945F02A82E0E945F020E944D
:100D90005F0260911308709114088091150890917A
:100DA0001608655F7F4F8F4F9F4F6E0D7F1D801F11
:100DB000911F0E94F4020E945F02682E0E945F024F
:100DC0000E945F02FA2DF53E11F0AA2011F5862D42
:100DD0008F30F9F035E0CC0CDD1C3A95E1F7560187
:100DE000CC24DD24609113087091140880911508BB
:100DF000909116086A0D7B1D8C1D9D1DAE014B5FE9
:100E00005F4F20E230E00E9469058114910499F45B
:100E1000A6C00894C11CD11C80E290E0A0E0B0E024
:100E2000E80EF91E0A1F1B1F90E0C91692E0D906B2
:100E300009F093CF99C0E0901308F0901408009146
:100E40001508109116088AE190E0A0E0B0E0E80EE5
:100E5000F91E0A1F1B1FEA0CFB1C0C1D1D1D82E046
:100E600090E0A0E0B0E089839A83AB83BC83AA249E
:100E7000BB243E010894611C711C58C080E142E013
:100E800050E060E070E00E94C50269817A818B8148
:100E90009C81660F771F881F991F2091050830914C
:100EA00006084091070850910808620F731F841FBD
:100EB000951F0E94F4020E945F02C82EDD240E944A
:100EC0005F02382E0E945F020E945F02532C44246E
:100ED000C40CD51CC114D104F1F40894A11CB11C9C
:100EE000C801B701A30122E030E00E946905E98052
:100EF000FA800B811C81EE0CFF1C001F111F8091DA
:100F0000050890910608A0910708B0910808E80E1E
:100F1000F91E0A1F1B1F89819A81AB81BC81019632
:100F2000A11DB11D89839A83AB83BC83809109087D
:100F300090E00197880D991D0090180102C09695C8
:100F400087950A94E2F7A816B90608F497CFC80166
:100F5000B7014EE051E022E030E00E9469050E94B6
:100F6000E00521E030E002C020E030E0C901A496B5
:100F70000FB6F894DEBF0FBECDBFCF91DF911F91AA
:100F80000F91FF90EF90DF90CF90BF90AF909F9028
:100F90008F907F906F905F904F903F9008952F9229
:100FA0003F924F925F926F927F928F929F92AF92F9
:100FB000BF92CF92DF92EF92FF920F931F93DF9336
:100FC000CF9300D000D000D0CDB7DEB72C9A8FEFF2
:100FD00080930A088093FE07E0E2EE2EE3E0FE2E07
:100FE000EB82FC82EE2DFF2D8FEF819333E0E63311
:100FF000F307D9F793E0909336039CEF9093370370
:10100000809338034FE3409339033FEC30933A0326
:1010100023EF20933B0390933C0380933D03409345
:101020003E0330933F03209340039093410345EDEB
:10103000409342039AEA9093430326E920934403A2
:101040003EED30934D0390934E032BEE20934F03D0
:1010500080935003809351038093520380935303F2
:101060008093540340935503909356038DEA8093E5
:1010700057033093AF049093B0042093B104E2EB94
:10108000F4E08FEF819344E0E03CF407D9F711924C
:1010900085E0E032F807D9F780E140E052E060E017
:1010A00070E00E94C5026624772410E072E1272ECA
:1010B000312C85B190E1892785B9512E5694EAEA01
:1010C0005E2A7301EE0CFF1CFA82E98288249924BF
:1010D0005EEF452E4AEAB42EB12AF12EF424FD82A9
:1010E0001E83AB2C882DF401E455FF4FB4904B992F
:1010F000A8C180FC79C086956301C80ED11C3091CF
:1011000018017601032E02C0F694E7940A94E2F7E0
:10111000C701B1010E94A413262F80910A088617E7
:10112000A9F060930A084091090850E0495E5E4FBB
:1011300002C0559547953A95E2F78091F607909150
:10114000F70760E275E002E10E94B104C701B10156
:101150000E94A413880F991F805E9A4FFC01608142
:1011600071816250704080E090E00090180104C0EE
:10117000660F771F881F991F0A94D2F720910908DC
:1011800030E0215030402C213D2140E050E0620F02
:10119000731F841F951F29E0660F771F881F991FF3
:1011A0002A95D1F720910108309102084091030857
:1011B00050910408620F731F841F951F0E94F40250
:1011C00000E211E04B993DC10E945F02F80181935A
:1011D0008F01F3E000321F07A9F70E945F020E940F
:1011E0005F02A0E2B1E002C0A0E2B2E0CB2CDD24BD
:1011F0008FEF809345034092460350924703A0929D
:101200004803C601969587958A6A809349038B2D7A
:101210008A6A80934A03ED80BE248B2D86958A6A64
:1012200080934B031AEAF12EBF28B0924C03AD0114
:101230004A5A5F4F08E513E09D0160E080E090E0CE
:10124000F8018D01DF0101C0672FF90171919F0144
:10125000E72FF0E0E370F070E054FF4FE490FA0104
:101260007191AF01E72FF0E0E370F070EC53FF4FA6
:1012700074917E298435910558F4F901E555FF4FA5
:10128000E081F0E0E370F070E853FF4FE49101C0BB
:10129000E0E07E2B6727E62FF0E0E459FF4FE49172
:1012A000ED9301968635910579F6D8018EEA93E0A3
:1012B00001C0722F2D91269526957227E72FF0E019
:1012C000E459FF4F3491FC013193CF01F4E08E3AA1
:1012D0009F0779F7E22FF0E0E459FF4FE491E093A4
:1012E000AE04E980FA80CE0CDF1C30911801760143
:1012F000032E02C0F694E7940A94E2F7C70163E272
:1013000070E00E94A413262F8091FE078617A9F093
:101310006093FE074091090850E0415D5D4F02C0B7
:10132000559547953A95E2F780910B0890910C08F6
:1013300069E178E003E20E94B104C70163E270E072
:101340000E94A413880F991F875E974FFC0140816C
:10135000518182E08BB91BB84250504060E070E090
:101360000090180104C0440F551F661F771F0A9490
:10137000D2F78091090890E001978C219D21A0E08F
:10138000B0E0480F591F6A1F7B1FE9E0440F551F4B
:10139000661F771FEA95D1F78091010890910208A6
:1013A000A0910308B0910408480F591F6A1F7B1FC2
:1013B00088E10E94C5028FEF0E941B028EEF0E94FF
:1013C0001B029B818C81E92FF82F4B993AC03191F8
:1013D00088E090E020E8422F432339F060E1E62ED8
:1013E000EBB850E3F52EFBB803C01BB840E24BB995
:1013F0002695019781F785E0E032F80731F71BB8B1
:101400008FEF0E941B028FEF0E941B020E945F025F
:101410000E947B0282E08BB91BB80894811C911C4E
:1014200090E18916910409F05DCE1E811F5FE8E00E
:10143000F0E06E0E7F1E133209F03BCE0E949D013C
:101440002C9826960FB6F894DEBF0FBECDBFCF9175
:10145000DF911F910F91FF90EF90DF90CF90BF90A1
:10146000AF909F908F907F906F905F904F903F9044
:101470002F9008952F923F924F925F926F927F929A
:101480008F929F92AF92BF92CF92DF92EF92FF9294
:101490000F931F93DF93CF93CDB7DEB768970FB647
:1014A000F894DEBF0FBECDBF9D8B8C8B3B0180E0DF
:1014B00060E00E94560180E091E00E946E01CC2421
:1014C000DD24760100E010E0AA24BB244E0108943C
:1014D000811C911C4B99ECC080E141E050E060E040
:1014E00070E00E94C5026091130870911408809109
:1014F0001508909116086C0D7D1D8E1D9F1D0E9474
:10150000F4020E945F02888F0E945F020E945F02C5
:10151000988D992309F469C0953009F466C09E320C
:1015200009F463C0953E09F460C0892F81548A3163
:1015300020F090539A3008F058C0609113087091D1
:1015400014088091150890911608655F7F4F8F4FA2
:101550009F4F6C0D7D1D8E1D9F1D0E94F4020E94E9
:101560005F02888F0E945F020E945F02988D892F20
:101570008E71D9F59F30C9F180E143E050E060E021
:1015800070E00E94C5026091130870911408809168
:10159000150890911608685F7F4F8F4F9F4F6C0D15
:1015A0007D1D8E1D9F1D0E94F4020E945F02898393
:1015B0000E945F028A830E945F028B830E945F0207
:1015C0000E945F02C401B30143E050E00E94CB13CC
:1015D000009759F4F801EE0FFF1F8C899D89E80FE1
:1015E000F91FB182A0820F5F1F4F0894A11CB11C8C
:1015F00080E290E0A0E0B0E0C80ED91EEA1EFB1E1B
:1016000090E0A91692E0B90609F064CF0230110506
:1016100008F450C0CC24DD248EEF282E8FEF382E16
:10162000200E311ED8011197BF8BAE8BB4E08B2EEC
:10163000912C8C0E9D1EACE06A2E712C6C0E7D1EC2
:101640002AC0F70182819381B4010E940003D7016F
:101650008D919C91B3010E940003C401B30148E045
:1016600050E00E94CB1397FF09C0F701828193815C
:101670002081318133832283918380830894A11C4C
:10168000B11C82E090E0E80EF91E4A145B04C8F633
:101690000894C11CD11C2C143D0460F0EC88FD881A
:1016A000F1E0AF2EB12C4E885F884C185D08EDCF6D
:1016B00000E012E0C80168960FB6F894DEBF0FBED6
:1016C000CDBFCF91DF911F910F91FF90EF90DF90F1
:1016D000CF90BF90AF909F908F907F906F905F90D2
:1016E0004F903F902F9008952F923F924F925F928C
:1016F0006F927F928F929F92AF92BF92CF92DF9222
:10170000EF92FF920F931F93DF93CF93CDB7DEB786
:101710002B970FB6F894DEBF0FBECDBFE82E092F72
:10172000A62E49875A87882E992EC40160E071E061
:101730000E943A0A6C0180E060E00E94560181E15B
:1017400091E00E946E01C114D10409F4B9C0AA202D
:10175000F9F06E2C702EEE24FF248701160144242C
:1017600055245E010894A11CB11C25C0D3018D91A4
:101770009D913D01B5010E940003C50169857A85EF
:1017800048E050E00E94CB13009781F4870102C02B
:1017900000E010E02FEF4FEF5FEF56010894A10833
:1017A000B1087E010894E11CF11C0BC00894E11CF7
:1017B000F11C011D111DE214F30404051505B0F21E
:1017C000E7CF4B997DC01D9918C020FF14C08FE54D
:1017D0009DE3A8E081509040A040E1F700C00000E8
:1017E00001C000001D9BFDCF0F5F1F4F0C151D0595
:1017F00011F400E010E02E7F01C021604F9915C068
:1018000021FF11C08FE59DE3A8E081509040A040EA
:10181000E1F700C0000001C000004F9BFDCF015068
:10182000104017FD85012D7F01C022604E9910C028
:1018300080E090E031E04E9930E0019684369105E9
:10184000D1F7332329F001C000004E9BFDCF1EC00D
:101850004017510789F0F801EE0FFF1FE80DF91D41
:1018600080819181B7012B870E940003C70161E04D
:101870000E947C01A8012B858FEE92EDA0E08150A3
:101880009040A040E1F700C000009BCFF801EE0FB0
:10189000FF1FE80DF91D808191818E010F5F1F4FA1
:1018A000B8010E94000339852A85832F922FDC011D
:1018B000F80188E001900D928150E1F781E001C0CC
:1018C00080E02B960FB6F894DEBF0FBECDBFCF9150
:1018D000DF911F910F91FF90EF90DF90CF90BF901D
:1018E000AF909F908F907F906F905F904F903F90C0
:1018F0002F9008959F92AF92BF92CF92DF92EF9276
:10190000FF920F931F93DF93CF93CDB7DEB7669708
:101910000FB6F894DEBF0FBECDBF982E10926108AF
:1019200080E185B982E08BB900E0B2E3EB2E12E1F1
:10193000EBB881E090E00E94E7121BB981E090E0F3
:101940000E94E7120F5F083C99F71BB880E040E067
:1019500050E0BA010E9482024B996AC20E942F0293
:101960008130D1F782E08BB902E04B9961C21BB89C
:1019700087E340E050E0BA010E9482020E94B30275
:101980008F3F09F455C28E7F81F70BB91BB889E2EE
:1019900040E050E0BA010E9482020E94B302882314
:1019A00029F08F3F09F444C20BB9DFCF80E145E055
:1019B00050E060E070E00E94C50266E370E080E005
:1019C00090E00E94F4028E010E5F1F4FA7E0EA2E06
:1019D000F12CEC0EFD1E0E945F02F80181938F0135
:1019E000EE15FF05C1F70E945F020E945F028A8127
:1019F0008634A9F48B81813491F48C81843579F417
:101A00008D81813361F48E81863349F410920D0803
:101A100010920E0810920F081092100859C080E121
:101A200044E050E060E070E00E94C50266EC71E0C6
:101A300080E090E00E94F4020E945F02E82EFF2402
:101A400000E010E0E0920D08F0920E0800930F08FD
:101A5000109310080E945F0290E0A0E0B0E0AA247A
:101A6000B82EC92EDA2EAE0CBF1CC01ED11EA092FD
:101A70000D08B0920E08C0920F08D09210080E9474
:101A80005F0290E0A0E0B0E08C01FF24EE24EA0CBD
:101A9000FB1C0C1D1D1DE0920D08F0920E0800931A
:101AA0000F08109310080E945F0279E0EE0CFF1CF3
:101AB000001F111F7A95D1F7E0920D08F0920E08E1
:101AC00000930F08109310080E945F020E945F02AB
:101AD0004B99AEC180E143E050E060E070E00E94CD
:101AE000C50260910D0870910E0880910F089091C9
:101AF0001008635F7F4F8F4F9F4F0E94F4020E9438
:101B00005F0289838981809309081092180180E01F
:101B100004C0898186958983822F9981282F2F5F20
:101B20009130B9F7809318010E945F02082F10E0EE
:101B30000E945F02E82E0E945F020E945F023E2D1B
:101B400020E0020F131F20E030E069E0000F111FBA
:101B5000221F331F6A95D1F780910D0890910E08CE
:101B6000A0910F08B0911008080F191F2A1F3B1FE2
:101B7000009305081093060820930708309308087F
:101B80004B9956C180E142E050E060E070E00E9475
:101B9000C50260910D0870910E0880910F08909118
:101BA00010086A5E7F4F8F4F9F4F0E94F4020E9481
:101BB0005F02082F10E01093FD070093FC070E94BE
:101BC0005F02382F20E0020F131F1093FD070093D0
:101BD000FC070E945F020E945F028091FC079091C7
:101BE000FD07A0E0B0E05AE0880F991FAA1FBB1FB5
:101BF0005A95D1F7209105083091060840910708C1
:101C000050910808820F931FA41FB51F80931308DB
:101C100090931408A0931508B09316088050904C28
:101C2000AF4FBF4F8093010890930208A093030821
:101C3000B09304084B99FCC084E091E060E070E050
:101C4000AE01415F5F4F20E00E9432039093F9079D
:101C50008093F807AA24A394F2E080309F0709F448
:101C6000AA24992051F080E291E06A2DAE01415FF3
:101C70005F4F0E94740BE82E01C0EE240E944F01BA
:101C800082E291E00E946E01AA2011F4EE2081F020
:101C9000DE011796FE013F9688E001900D9281507B
:101CA000E1F7AA2011F4EE2019F0E1E0F0E002C023
:101CB000E0E0F0E08E01095F1F4F80E091E06FE50A
:101CC00078E0A8012E2F0E9432039C0190930C080B
:101CD00080930B0882E02030380771F588E091E0AE
:101CE00060E070E0A8012A2D0E9432039093F7076C
:101CF0008093F607E2E080309E0709F499C0C8019E
:101D000060E071E040E352E00E946306009709F44E
:101D10008FC080E091E06FE578E0A8012A2D0E9455
:101D2000320390930C0880930B08F2E080309F07F9
:101D300009F47EC00E94CF074B997AC0AA20D9F43B
:101D40008E01095F1F4FC80164E071E040E050E080
:101D50000E94630684E091E060E070E0A80121E069
:101D60000E9432039C019093F9078093F80782E068
:101D70002030380769F1EE2059F4CE010796BE01F4
:101D8000615F7F4F48E050E00E94CB13009701F164
:101D90006091F8077091F90745E0660F771F4A9543
:101DA000E1F780E090E02091130830911408409111
:101DB000150850911608620F731F841F951FAE01FE
:101DC000495F5F4F28E030E00E9469050E94E0050E
:101DD0000E944F01CE01079660E00E947C018FEFC8
:101DE0008093FE0780930A081092FB071092FA076F
:101DF000109260081092000801E0009312081092FF
:101E000011081092FF071092190110921F0180E231
:101E100091E0909318088093170880E140E052E029
:101E200060E070E00E94C5020E949D01009361087D
:101E300066960FB6F894DEBF0FBECDBFCF91DF918F
:101E40001F910F91FF90EF90DF90CF90BF90AF90D8
:101E50009F9008954B9B22C080E090E0A5E0B0E009
:101E60004B9B5FC00197A109B109D1F780916E002A
:101E70008E7F80936E00E89810926108109212088D
:101E800080910D01882309F44CC00E944F0183E327
:101E900091E00E946E0110920D0108954E9921C0AB
:101EA000309B1FC080E090E021E04E9920E0019639
:101EB00084369105D1F7222311F4089500004E9B3A
:101EC000FDCFF89481E00E947A0C8091610888230C
:101ED00031F080916E00816080936E00E89A789472
:101EE0000895809161088823E1F480E090E0A5E006
:101EF000B0E04B9916C00197A109B109D1F7F89448
:101F000080E00E947A0C80916108882331F08091F2
:101F10006E00816080936E00E89A789481E08093EF
:101F20000D010895CF92DF92EF92FF920F931F93CE
:101F3000CF93DF93E82EF62E142F309118014B9992
:101F400029C1C42FD0E044E0CC0FDD1F4A95E1F752
:101F5000C60FD11D6E01032E02C0D694C7940A94F9
:101F6000E2F7C60163E270E00E94A413262F80917D
:101F7000FE078617A9F06093FE074091090850E01C
:101F8000415D5D4F02C0559547953A95E2F78091C6
:101F90000B0890910C0869E178E003E20E94B1041B
:101FA000C60163E270E00E94A413880F991F875E48
:101FB000974FFC014081518182E08BB91BB84250A0
:101FC000504060E070E00090180104C0440F551FBD
:101FD000661F771F0A94D2F78091090890E0019755
:101FE0008C239D23A0E0B0E0480F591F6A1F7B1F80
:101FF00009E0440F551F661F771F0A95D1F780919E
:10200000010890910208A0910308B0910408480FBC
:10201000591F6A1F7B1F88E10E94C5028FEF0E9433
:102020001B028EEF0E941B0280EB90E030E120E368
:102030003BB92BB90197E1F71BB883E00E941B0263
:102040008CEF0E941B028FEF0E941B028FE30E9405
:102050001B028FEC0E941B0283EF0E941B028CEF7D
:102060000E941B028FEF0E941B028FE30E941B0243
:102070008FEC0E941B0283EF0E941B028CEF0E94D8
:102080001B0285ED0E941B028AEA0E941B0286E960
:102090000E941B028FEF0E941B028EEF0E941B0208
:1020A000812F86958A6A0E941B02812F8A6A0E946C
:1020B0001B028F2D86958A6A0E941B028F2D8A6AC9
:1020C0000E941B020EEF0F250127802F86958A6A3A
:1020D0000E941B02802F8A6A0E941B028EED0E94C2
:1020E0001B028AEA0E941B028BEE0E941B028FEFEA
:1020F0000E941B028FEF0E941B028FEF0E941B02A7
:102100008FEF0E941B028FEF0E941B02FF242EE51F
:1021100031E0E29EC001E39E900DF29E900D1124ED
:10212000FC01E05EFE4F9C0123583D4F70E260E1F0
:1021300050E3A19188E090E040E8B42FBA2319F071
:102140006BB95BB902C01BB87BB946950197A9F77B
:10215000E217F30771F71BB880E790E030E120E366
:102160003BB92BB90197E1F71BB880E093E020E27F
:102170001BB82BB90197E1F71BB88FEF0E941B0228
:102180008FEF0E941B020E945F020E947B0282E08E
:102190008BB91BB8DF91CF911F910F91FF90EF90FA
:1021A000DF90CF900895AF92BF92DF92EF92FF92AF
:1021B0000F931F93DF93CF930F92CDB7DEB74B9959
:1021C00038C063E1A62E61E0B62EF50181918F3F04
:1021D00061F10AE111E052E2E52E51E0F52E90E0C6
:1021E000DD24DA94F50160816F3F39F0892FF80121
:1021F000408199830E94920F9981F501D1925F01EC
:10220000F801D1928F01F70110829F5F2EE531E036
:10221000E20EF31E953031F71092190180E291E041
:10222000909318088093170804C031E0E831F30751
:1022300069F60F90CF91DF911F910F91FF90EF9072
:10224000DF90BF90AF900895AF92BF92CF92DF9290
:10225000EF92FF920F931F93CF93DF9380E184B9A6
:102260009AE397B992E39AB985B982E088B98BB9B4
:1022700017BC14BC91E095BD85BF80936900109296
:10228000FF07109261081092600810925F08109288
:10229000FB071092FA071092000890931208109210
:1022A00011081092190110921F0180E291E09093A1
:1022B0001808809317080E940E010E944F018CECB1
:1022C00090E00E946E0180E061E00E9456018DED79
:1022D00090E00E946E018FEB95E6A2E58150904060
:1022E000A040E1F700C0000000E1B02E13E2C12ED3
:1022F000D12CBBE8AB2E0E942A0F309B02C015B830
:10230000FACFB5B883B18F7080931101909112010B
:10231000891769F180931201883041F0843041F0CF
:10232000823041F0813019F580E005C082E003C0C1
:1023300084E001C086E090911108890F8770E82F32
:10234000E695F0E0E859FF4FE49180FFE295EF70E9
:10235000E3FDE86FE90FE0931108E53C10F01092FF
:102360001108809111088C3810F0A092110880910A
:102370006108882309F4BFCF80911208882309F4EB
:10238000BACFF8948091FF078F5F8F708093FF071B
:102390001091110816951695C12FD0E0A4E0CC0F2E
:1023A000DD1FAA95E1F7C80FD11D309118017E01FC
:1023B000032E02C0F694E7940A94E2F7C701B6012F
:1023C0000E94A413262F8091FE078617A9F0609320
:1023D000FE074091090850E0415D5D4F02C05595F0
:1023E00047953A95E2F780910B0890910C0869E1C6
:1023F00078E003E20E94B104C701B6010E94A41371
:10240000880F991F875E974FDC01ED90FC90119724
:102410008091FF0790911301981721F490911A0170
:10242000911701F190911401981721F490911B01DB
:102430009117C1F090911501981721F490911C010A
:10244000911781F090911601981721F490911D0138
:10245000911741F090911701981731F480911E0166
:10246000811711F40E94D310B7016250704080E0D0
:1024700090E00090180104C0660F771F881F991F15
:102480000A94D2F72091090830E0215030402C23E3
:102490003D2340E050E0620F731F841F951FE9E069
:1024A000660F771F881F991FEA95D1F720910108C1
:1024B000309102084091030850910408620F731F85
:1024C000841F951F0E94F4021092FB071092FA07D6
:1024D0001092120878940FCF4B9978C0409119014F
:1024E000842F90E02EE531E0829FF001839FF00D74
:1024F000929FF00D1124E05EFE4F22812D3A09F0EB
:1025000046C020911F012223A9F52091FF07FC015D
:10251000ED5EFE4F2083865E9E4F3091110836950A
:102520003695FC0130832F3011F02D3019F4822FB5
:102530008E5F02C0822F8F5F8F708093FF074430C1
:1025400029F40E94CF010E94D3101EC04F5F409318
:10255000190150E02EE531E0429FC001439F900DEC
:10256000529F900D1124805E9E4F90931808809387
:1025700017080DC0809110018093FF0710921F0172
:102580008F3029F40E94CF0181E0809312082091BE
:10259000190130E08EE591E0289FF001299FF00DB0
:1025A000389FF00D1124E05EFE4F8281863971F470
:1025B000878190E085759070880F991F208525751B
:1025C000282B2093100181E080931F01089528E1BA
:1025D00000002A95E9F70197D1F70895000000005F
:1025E0000000000000000000000000000895AF930C
:1025F000AFB7AF93BF932F93A091600820915F086E
:10260000A22BA8B9A5EAA6BD20E0E8DFA0915F084B
:10261000A8B9B0911208BB2341F0209360082F9114
:10262000BF91AF91AFBFAF911895A0E3ABB9A9B17E
:10263000A170AA0F2A2FA0E1ABB9A091FA07B0911F
:10264000FB071196A093FA07B093FB07A03989F412
:10265000BC3079F4A1E0A0931208CF93C0E7A8E0C2
:10266000B0E3BBB9B0E1BBB9AA95D1F7CA95B9F748
:10267000CF91209360082F91BF91AF91AFBFAF91E1
:1026800018952F932FB72F9330995AC03F933091BD
:10269000000826B124702327E1F326B1247020938B
:1026A000000828E02A95F1F700004F935F936F939D
:1026B0007F938F93EF93FF9360E0E0911708F09181
:1026C00018083DE541E00DC05091000876B17470E6
:1026D0007527E1F376B17470709300087EE07A9507
:1026E000F1F727E081E079B17470D1F4000070E275
:1026F0007A95F1F776B174705091000870930008E4
:10270000752776957695880F872B2A9561F7853DF5
:1027100009F461E06030C1F2819331504040A1F68C
:102720009F93AF93BF930E946C12BF91AF919F9103
:10273000FF91EF918F917F916F915F914F913F91B9
:102740002F912FBF2F911895AA1BBB1B51E107C0DA
:10275000AA1FBB1FA617B70710F0A61BB70B881F31
:10276000991F5A95A9F780959095BC01CD010895C0
:1027700097FB092E07260AD077FD04D0E5DF06D0A7
:1027800000201AF4709561957F4F0895F6F79095A3
:1027900081959F4F0895FB01DC0104C08D9101904C
:1027A000801921F441505040C8F7881B990B0895B7
:0427B000F894FFCFCB
:1027B4004E4943004254460044534B00FE01FFFF80
:00000001FF
