:100000000C94A2000C9456140C94BF000C94BF00E6
:100010000C94BF000C94BF000C94BF000C94BF0064
:100020000C94BF000C94BF000C94BF000C94BF0054
:100030000C94BF000C94BF000C94BF000C94BF0044
:100040000C940C140C94BF000C94BF000C94BF00D3
:100050000C94BF000C94BF000C94BF000C94BF0024
:100060000C94BF000C94BF000FED032196979A9B50
:100070009D9E9FA6A7ABACADAEAFB2B3B4B5B6B7BD
:10008000B9BABBBCBDBEBFCBCDCECFD3D6D7D9DAE4
:10009000DBDCDDDEDFE5E6E7E9EAEBECEDEEEFF2F7
:1000A000F3F4F5F6F7F9FAFBFCFDFEFF000D0B0982
:1000B000070503010E0C0A080604020F00020103E3
:1000C000000201030008040C0020103020202053FF
:1000D0004449534B32204C43442020200020627975
:1000E000204170706C6520494920425220004D6FBC
:1000F000756E7465642000204469736B203A20009B
:100100004C6F61642020204469726563746F72795A
:100110000053656C6563742061204469736B203AF9
:1001200020004C6F6164696E67202E2E2E2E2E2EBD
:100130002E2E002020204E6F2053442043617264F5
:100140002020200011241FBECFEFD8E0DEBFCDBF9E
:1001500011E0A0E0B1E0E0EEF9E202C005900D92FE
:10016000A031B107D9F718E0A0E1B1E001C01D92BC
:10017000A236B107E1F70E94F3110C94EE140C942F
:100180000000459880FF15C0419A81FF15C0439A31
:1001900082FF15C05C9A83FD15C05D98459A88E082
:1001A0008A95F1F70000459888E08A95F1F70000FC
:1001B0000895419881FDEBCF439882FDEBCF5C9889
:1001C00083FFEBCF5D9AEACF1F93182F599A44987B
:1001D00082958F700E94C100812F8F700E94C10094
:1001E0001C7F41F480E899E20197F1F700C000001C
:1001F0001F91089586E791E00197F1F700C0000094
:100200001F9108951F93182F599A449A82958F70C1
:100210000E94C100812F8F700E94C10080E792E090
:100220000197F1F700C000001F91089544988FE8EE
:1002300090EDA3E081509040A040E1F700C00000A5
:1002400083E00E94C100A1E1BAE71197F1F700C075
:10025000000083E00E94C10081E19AE70197F1F775
:1002600000C0000083E00E94C100A1E1BAE711973D
:10027000F1F700C0000082E00E94C10081E19AE72E
:100280000197F1F700C0000088E20E94E40088E0D6
:100290000E94E40081E00E94E40082E00E94E40009
:1002A00086E00E94E4008CE00E94E400089581E072
:1002B0000E94E40082E00E94E40008958F7060FFD5
:1002C00004C080540E94E400089580580E94E40015
:1002D00008950E9402010895CF93DF93EC01888175
:1002E000882331F021960E94020189918823D9F751
:1002F000DF91CF910895CF93DF93EC01FC018491BE
:10030000882341F021960E940201FE0121968491EA
:100310008823C9F7DF91CF9108951F93CF93DF937F
:10032000EC016623A1F40E94570180E061E00E9485
:100330005E018EEE90E00E947B0118E089910E94A0
:1003400002011150D9F7DF91CF911F91089580E0FC
:1003500061E00E945E0187EF90E00E947B01EDCF9B
:1003600020E030E04EE551E0249FF001259FF00DA4
:10037000349FF00D1124E05EFE4F80E090E011927A
:10038000019661E08E359607D1F72F5F3F4F2530FC
:10039000310551F78FEF80931A01809313018093F9
:1003A0001B018093140180931C018093150180939D
:1003B0001D018093160180931E01809317010895FB
:1003C0008091FA079091FB072CE080399207D0F4D6
:1003D00020E12BB940E18031940770F44B9914C0AF
:1003E00030E320E102C04B990EC03BB92BB9019616
:1003F00040E180319407B8F380E99CE09093FB07DB
:100400008093FA07089508950895DF92EF92FF927E
:100410000F931F93CF93DF93082FC8E0D0E010E82D
:1004200020E2D22E90E1E92E80E3F82E0DC0EBB849
:1004300081E090E00E94FB13FBB881E090E00E9415
:10044000FB131695219781F0812F802381F71BB82C
:1004500081E090E00E94FB13DBB881E090E00E9415
:10046000FB131695219781F71BB8DF91CF911F9150
:100470000F91FF90EF90DF90089528E030E090E832
:1004800070E260E150E306C06BB95BB9969521500C
:10049000304049F0492F4823B9F71BB87BB99695EE
:1004A00021503040B9F71BB80895FF920F931F9366
:1004B000DF93CF930F92CDB7DEB780E18BB981E0A8
:1004C00090E00E94FB1319828981883001F110E0CD
:1004D00030E3F32E00E1FBB881E090E00E94FB13D3
:1004E00089B1110F8170182B0BB981E090E00E9447
:1004F000FB1389818F5F89838981883061F7812F20
:100500000F90CF91DF911F910F91FF90089510E010
:10051000F6CFDF93CF930F92CDB7DEB780E18BB9E3
:1005200019828981883099F080E030E320E13BB97D
:1005300099B1880F9170892B2BB999819F5F99830D
:1005400099819830A1F70F90CF91DF91089580E0C5
:10055000FACF0E9489024B9902C08F3FD1F70895CC
:100560001F93DF93CF9300D000D0CDB7DEB7182F05
:100570008FEF4C835B836A8379830E940502812F0E
:10058000805C0E9405027981872F0E9405026A81A2
:10059000862F0E9405025B81852F0E9405024C81F7
:1005A000842F0E94050285E90E9405028FEF0E94B8
:1005B00005020F900F900F900F90CF91DF911F9138
:1005C00008950E9455024B9903C087FDFACF089504
:1005D0008FEF08950E9489024B9903C087FDFACFDF
:1005E00008958FEF0895DF92EF92FF920F931F937C
:1005F000E0E4DE2ED80EE72EF62E052F142F8FEF17
:100600000E943D028D2D0E943D028E2D0E943D02D2
:100610008F2D0E943D02802F0E943D02812F0E945B
:100620003D0285E90E943D028FEF0E943D020E943B
:10063000EA02882311F08F3F11F71F910F91FF906D
:10064000EF90DF900895AB01BC0181E10E94F302BD
:1006500002C08E3F21F00E9489024B9BFACF089581
:100660000F931F93CF93DF938C01EB0180E148E060
:1006700050E060E070E00E94F302000F111F02954D
:100680001295107F1027007F1027B80180E090E0BE
:1006900020911308309114084091150850911608C4
:1006A000620F731F841F951F0E94230308E00E949E
:1006B000890289930150D9F70E9489020E94890218
:1006C000DF91CF911F910F9108952F923F924F92FA
:1006D0005F926F927F928F929F92AF92BF92CF92D2
:1006E000DF92EF92FF920F931F93DF93CF93CDB7DB
:1006F000DEB768970FB6F894DEBF0FBECDBF1C0102
:100700002B015B8B4A8B2E8BEE24FF2487011D8AE5
:100710001C8A188E1F8A40E052E0598B488BCC24EB
:10072000DD2498E0692E712C6C0E7D1E88E0882EE9
:10073000912C860C971C4B99F0C080E141E050E071
:1007400060E070E00E94F302609113087091140859
:1007500080911508909116086E0D7F1D801F911FC6
:100760000E9423030E948902A82E0E9489020E94EF
:100770008902AA2009F4AEC05A2D553009F4AAC046
:100780005E3209F4A7C0553E09F4A4C08A2D8154F5
:100790008A3120F08F5E8A3008F09CC06091130887
:1007A000709114088091150890911608655F7F4F2D
:1007B0008F4F9F4F6E0D7F1D801F911F0E9423033F
:1007C0000E948902A82E0E9489020E9489028A2D15
:1007D0008E7109F07FC08A2D8F3009F47BC080E1D3
:1007E0004CE050E060E070E00E94F302609113087A
:1007F0007091140880911508909116086E0D7F1D58
:10080000801F911F0E94230353010E948902D5017A
:100810008D935D01A815B905C1F70E9489028D83EA
:100820000E9489028E830E9489028F8341145104A1
:1008300009F49FC00E9489028170880F880F880F79
:10084000F20180830E9489020E94890280E144E0D3
:1008500050E060E070E00E94F30260911308709134
:10086000140880911508909116086A5E7F4F8F4F8B
:100870009F4F6E0D7F1D801F911F0E9423030E94BA
:10088000890289830E9489028A830E9489028B835C
:100890000E9489028C830E9489020E948902CE01F3
:1008A0000596B10143E050E00E94E114009791F4F5
:1008B000FE89FF2309F04DC029813A818B819C81FB
:1008C000AC89BD89A817B90708F45CC08A179B07D3
:1008D00009F452C00894C11CD11C80E290E0A0E051
:1008E000B0E0E80EF91E0A1F1B1F90E0C91692E047
:1008F000D90609F020CFA889B989E2E0A030BE0767
:1009000049F04A895B894115510521F05E895523DB
:1009100009F43FC02889398902C020E032E0C901CA
:1009200068960FB6F894DEBF0FBECDBFCF91DF91B2
:100930001F910F91FF90EF90DF90CF90BF90AF90FD
:100940009F908F907F906F905F904F903F902F90EF
:1009500008954A895B894115510509F4BBCFC3014C
:10096000BA0148E050E00E94E114009709F0B2CFCC
:10097000A3CF0E94890266CFEF89F88D2E173F071B
:1009800008F4A8CFD98AC88A9D8B8C8B388F2F8B7F
:10099000A1CF80E148E050E060E070E00E94F30207
:1009A00068897989660F771F62957295707F7627BF
:1009B000607F762780E090E0209113083091140842
:1009C0004091150850911608620F731F841F951FE0
:1009D0000E942303EA88FB88A8E0CA2E0E948902AD
:1009E000D7018D937D01CA94C9F70E9489020E94A4
:1009F000890290CF4F925F926F927F928F929F92D7
:100A0000AF92BF92CF92DF92EF92FF920F931F931C
:100A1000CF93DF93EC012B014A01F22E702E4B9BFA
:100A200011C0DF91CF911F910F91FF90EF90DF9058
:100A3000CF90BF90AF909F908F907F906F905F907E
:100A40004F90089580E142E050E060E070E00E9445
:100A5000F302609113087091140880911508909129
:100A60001608665E7F4F8F4F9F4F9E01220F331FE8
:100A700022953295307F3227207F3227442737FD59
:100A80004095542F620F731F841F951F0E942303EC
:100A90000E948902C82FD0E00E948902382F20E0EE
:100AA000C20FD31F0E9489020E948902FF2009F40D
:100AB0004EC000E010E0662406C0FFEFC73FDF072E
:100AC000F0F5FE14E0F108151905C8F50F5F1F4F8A
:100AD000C801672D762D0E94CE145C01E62EBE0162
:100AE00080E090E0660F771F881F991F209105080E
:100AF000309106084091070850910808620F731F53
:100B0000841F951F0E9423030E948902C82FD0E0F2
:100B10000E948902D82ECC24CC0DDD1D0E948902B2
:100B20000E948902EF1449F6F501EE0FFF1FE40D54
:100B3000F51DD183C083FFEFC73FDF0710F280E1CF
:100B400040E052E060E070E00E94F3026ACFF20100
:100B5000D183C083AECF4115510561F0A62FB72FC9
:100B6000E82FF92F80E090E02D91219301968417D2
:100B70009507D0F308954F925F926F927F928F9274
:100B80009F92AF92BF92CF92DF92EF92FF920F931C
:100B90001F93CF93DF935B016C01542E452E890187
:100BA0004B9B11C0DF91CF911F910F91FF90EF9060
:100BB000DF90CF90BF90AF909F908F907F906F907D
:100BC0005F904F90089580E140E052E060E070E077
:100BD0000E94F302612C5EEF752E5FEF852E5FEFB2
:100BE000952E6A207B208C209D20C401B3010E9499
:100BF0002303C0E2D1E07E010E948902F7018193C4
:100C00007F01F0E2EF16F3E0FF06B1F70E948902E0
:100C10000E948902F501F170E05EFE4F0115110599
:100C200059F0C201A92FB42D80E090E02D912193BD
:100C3000019680179107D0F382E08BB91BB888E149
:100C4000B401A3010E94F3028FEF0E943D028EEFD8
:100C50000E943D0289910E943D0283E0C032D80784
:100C6000C9F78FEF0E943D028FEF0E943D020E9464
:100C700089020E94A90282E08BB91BB893CF9F9290
:100C8000AF92BF92CF92DF92EF92FF920F931F939A
:100C9000CF93DF93C0900508D0900608E090070836
:100CA000F09008084B9B0CC0DF91CF911F910F91E2
:100CB000FF90EF90DF90CF90BF90AF909F900895FE
:100CC00080E140E052E060E070E00E94F302809139
:100CD000FC079091FD07009739F3AA24BB24F2E0AA
:100CE0009F2EC701B6010E942303C0E2D1E08E010E
:100CF0000E948902D8018D938D01B3E000321B0759
:100D0000B9F70E9489020E9489029BB81BB84091E2
:100D1000FC075091FD0760E070E0E9E0440F551FCB
:100D2000661F771FEA95D1F74C0D5D1D6E1D7F1D67
:100D300088E10E94F3028FEF0E943D028EEF0E9435
:100D40003D0289910E943D02E3E0C032DE07C9F70F
:100D50008FEF0E943D028FEF0E943D020E948902A8
:100D60000E94A9029BB81BB80894A11CB11C8091D9
:100D7000FC079091FD07A816B90608F095CF80E012
:100D800092E0A0E0B0E0C80ED91EEA1EFB1EA9CF7B
:100D90003F924F925F926F927F928F929F92AF920B
:100DA000BF92CF92DF92EF92FF920F931F93DF9348
:100DB000CF93CDB7DEB7A4970FB6F894DEBF0FBEC2
:100DC000CDBF2A014B993CC155E0A52EB12CAC0EEC
:100DD000BD1EA5019E012B5D3F4FD5011D92A2179F
:100DE000B307E1F7A82FB92FC50108962D91FA0195
:100DF0002193AF01E817F907C9F7DB018C918D87C3
:100E000011968C9111978E8712968C918F87C201C3
:100E1000A0E0B0E049E0880F991FAA1FBB1F4A95C8
:100E2000D1F7F501848F958FA68FB78FEE24FF241D
:100E30008701CC24DD2411C00894C11CD11C80E2A0
:100E400090E0A0E0B0E0E80EF91E0A1F1B1F90E042
:100E5000C91692E0D90609F4F3C080E141E050E000
:100E600060E070E00E94F302609113087091140832
:100E700080911508909116086E0D7F1D801F911F9F
:100E80000E9423030E948902982E0E9489020E94D8
:100E9000890260911308709114088091150890914F
:100EA0001608655F7F4F8F4F9F4F6E0D7F1D801F10
:100EB000911F0E9423030E948902882E0E948902AA
:100EC0000E948902F92DF53E19F0992009F0B4CF5E
:100ED000882D8F3009F4B0CF6091130870911408F9
:100EE00080911508909116086E0D7F1D801F911F2F
:100EF000A50120E230E00E94BB054114510409F431
:100F0000C2C0A0901308B0901408C0901508D090EB
:100F100016088AE190E0A0E0B0E0A80EB91ECA1E53
:100F2000DB1EAE0CBF1CC01ED11E82E090E0A0E014
:100F3000B0E089839A83AB83BC838091090890E0F9
:100F40000197840D951D0090180102C09695879514
:100F50000A94E2F7009709F48EC000E010E04E0119
:100F60000894811C911C1CC089819A81AB81BC8131
:100F70000196A11DB11D89839A83AB83BC838091A7
:100F8000090890E00197840D951D0090180102C09A
:100F9000969587950A94E2F70817190708F06BC031
:100FA00080E142E050E060E070E00E94F30269817D
:100FB0007A818B819C81660F771F881F991F2091F2
:100FC0000508309106084091070850910808620F03
:100FD000731F841F951F0E9423030E948902E82E1D
:100FE000FF240E948902382E0E9489020E948902F1
:100FF000732C6624E60CF71CE114F10409F0B4CF5D
:101000000F5F1F4FC601B501A40122E030E00E942E
:10101000BB0589819A81AB81BC815C016D01AA0C01
:10102000BB1CCC1CDD1C20910508309106084091AA
:10103000070850910808A20EB31EC41ED51E98CFF3
:1010400020E030E0C901A4960FB6F894DEBF0FBED1
:10105000CDBFCF91DF911F910F91FF90EF90DF9067
:10106000CF90BF90AF909F908F907F906F905F9048
:101070004F903F900895C601B5014EE051E022E047
:1010800030E00E94BB050E943F0621E030E0DACF4D
:101090002F923F924F925F926F927F928F929F9288
:1010A000AF92BF92CF92DF92EF92FF920F931F9376
:1010B000DF93CF93CDB7DEB728970FB6F894DEBF96
:1010C0000FBECDBF50E2C52E53E0D52E2C9A8FEF28
:1010D00080930A088093FE07C982DA82EC2DFD2DE9
:1010E0008FEF819393E0E633F907D9F793E090937C
:1010F00036039CEF90933703809338034FE340937C
:1011000039033FEC30933A0323EF20933B03909352
:101110003C0380933D0340933E0330933F03209371
:1011200040039093410345ED409342039AEA909324
:10113000430326E9209344033EED30934D039093FF
:101140004E032BEE20934F03809350038093510363
:101150008093520380935303809354034093550329
:10116000909356038DEA809357033093AF04909386
:10117000B0042093B104E2EBF4E08FEF819394E0AC
:10118000E03CF907D9F7119285E0E032F807D9F78A
:1011900080E140E052E060E070E00E94F30244240D
:1011A00055246624772410E140E2F42E30E3E32E48
:1011B00095B1912795B9B62CB6949AEAB92A8824A4
:1011C0009924E62DEA6AEB83FEEFF625FC83C30142
:1011D00082959295907F9827807F98279E838D8314
:1011E000AB2C882DF401E455FF4FB4904B997DC092
:1011F00080FC94C086951201280E311C3091180194
:10120000F101032E02C0F695E7950A94E2F7F887FC
:10121000EF83CF0162E170E00E94BA14262F809123
:101220000A088617B9F060930A084091090850E04F
:10123000495E5E4F02C0559547953A95E2F7809119
:10124000F6079091F70760E275E002E10E94FA0468
:10125000309118018F81988562E170E00E94BA1484
:10126000880F991F805E9A4FFC01608171816250E6
:10127000704080E090E004C0660F771F881F991FC0
:101280003A95D2F72091090830E0215030402221D0
:10129000332140E050E0620F731F841F951FB9E0B7
:1012A000660F771F881F991FBA95D1F72091010803
:1012B000309102084091030850910408620F731F97
:1012C000841F951F0E94230380E291E01C010BC044
:1012D0000E948902F10181931F01F0E22F16F3E0D1
:1012E0003F0609F452C14B9BF3CF28960FB6F894F2
:1012F000DEBF0FBECDBFCF91DF911F910F91FF9049
:10130000EF90DF90CF90BF90AF909F908F907F90A5
:101310006F905F904F903F902F90089520E232E0C1
:101320002B2C33248FEFF60185A38EEF86A3A7A283
:101330009B8190A7C101969587958A6A81A78B2D7D
:101340008A6A82A79C819B25892F86958A6A83A7B2
:101350009A6A94A738872F832A5A3F4F68E573E02B
:10136000AF81B88500E080E090E0AB017A2D5D01AF
:1013700058874F831DC0AD0145555F4FFA0140812D
:10138000E42FF0E0E370F070E853FF4FE4916E2B30
:101390000627E02FF0E0E459FF4F4491EF81F885F4
:1013A0004193F887EF83019686359105C1F0062FAA
:1013B000ED91F0E0E370F070E054FF4F4491F901DB
:1013C00051919F01E52FF0E0E370F070EC53FF4F77
:1013D0006491642B8435910570F2E0E0D8CFB88633
:1013E000AF82A72EAEEAB3E02F813885962F01C0D9
:1013F000982FF90181919F0186958695E92FE8271D
:10140000F0E0E459FF4FE491ED93F4E0AE3ABF070A
:1014100079F7E82FF0E0E459FF4FE491E093AE0450
:101420008D819E81280E391E30911801F101032E05
:1014300002C0F695E7950A94E2F7F887EF83CF01AB
:1014400063E270E00E94BA14262F8091FE0786178F
:10145000B9F06093FE074091090850E0415D5D4F8F
:1014600002C0559547953A95E2F780910B08909107
:101470000C0869E178E003E20E94FA043091180157
:101480008F81988563E270E00E94BA14880F991FDB
:10149000875E974FFC014081518182E08BB91BB878
:1014A0004250504060E070E004C0440F551F661F7A
:1014B000771F3A95D2F78091090890E00197822131
:1014C0009321A0E0B0E0480F591F6A1F7B1FE9E09D
:1014D000440F551F661F771FEA95D1F780910108C9
:1014E00090910208A0910308B0910408480F591F79
:1014F0006A1F7B1F88E10E94F3028FEF0E943D026A
:101500008EEF0E943D0299818A81E92FF82F4B9935
:10151000ECCE419188E090E020E805C01BB9EBB823
:101520002695019741F0322F3423C1F71BB8FBB841
:1015300026950197C1F785E0E032F80741F71BB81F
:101540008FEF0E943D028FEF0E943D020E948902B0
:101550000E94A90282E08BB91BB80894811C911CDF
:1015600090E18916910409F03CCE0894611C711C2D
:10157000E8E0F0E04E0E5F1EF3E26F16710409F032
:1015800017CE0E94B0012C98B0CE0E9489020E9412
:10159000890220E231E0C4CE2F923F924F925F92B7
:1015A0006F927F928F929F92AF92BF92CF92DF9273
:1015B000EF92FF920F931F93DF93CF93CDB7DEB7D8
:1015C00065970FB6F894DEBF0FBECDBF1C013B017F
:1015D00080E060E00E945E0180E091E00E947B017B
:1015E000EE24FF248701AA24BB24CC24DD244E0151
:1015F0000894811C911C4B99FCC080E141E050E0B3
:1016000060E070E00E94F30260911308709114088A
:1016100080911508909116086E0D7F1D801F911FF7
:101620000E9423030E948902482E0E9489020E9480
:101630008902442009F468C0842D853009F464C00F
:101640008E3209F461C0853E09F45EC081548A314E
:1016500020F08F5E8A3008F057C0609113087091B7
:1016600014088091150890911608655F7F4F8F4F81
:101670009F4F6E0D7F1D801F911F0E9423030E94AC
:101680008902482E0E9489020E948902842D8E714F
:10169000D9F5942D9F30C1F180E143E050E060E046
:1016A00070E00E94F3026091130870911408809119
:1016B000150890911608685F7F4F8F4F9F4F6E0DF2
:1016C0007F1D801F911F0E9423030E94890289832E
:1016D0000E9489028A830E9489028B830E94890268
:1016E0000E948902C401B30143E050E00E94E1146A
:1016F000009751F4F501EE0FFF1FE20DF31DD182AB
:10170000C0820894A11CB11C0894C11CD11C80E2A9
:1017100090E0A0E0B0E0E80EF91E0A1F1B1F90E069
:10172000C91692E0D90609F066CF2501A2E0AA16F3
:10173000B10408F461C0F5013297FD8BEC8B4501D3
:1017400008948108910866247724F4E0CF2ED12CE8
:10175000CC0EDD1EECE0AE2EB12CAC0EBD1E811405
:101760009104D1F1810171E0E72EF12C08C00894B9
:10177000E11CF11C0E5F1F4F8E149F0468F1D8010D
:1017800012968D919C911397B6010E943003F80137
:1017900080819181B5010E943003C601B50148E006
:1017A00050E00E94E11497FFE2CFD80112968D918C
:1017B0009C9113972D913C91119713963C932E93E6
:1017C000129711969C938E930894E11CF11C0E5F66
:1017D0001F4F8E149F0498F60894611C711C089486
:1017E00081089108EC89FD89E615F70508F0B7CF67
:1017F00003C0412C62E0562EC20165960FB6F894E4
:10180000DEBF0FBECDBFCF91DF911F910F91FF9033
:10181000EF90DF90CF90BF90AF909F908F907F9090
:101820006F905F904F903F902F9008952F923F922E
:101830004F925F926F927F928F929F92AF92BF92E0
:10184000CF92DF92EF92FF920F931F93DF93CF938C
:10185000CDB7DEB72B970FB6F894DEBF0FBECDBF66
:10186000082FE92EC62E49875A87882E992EC40143
:1018700060E071E00E94CC0A1C0180E060E00E9400
:101880005E0181E191E00E947B012114310409F4A1
:1018900045C0CC2009F089C0EE24FF244B993EC0FE
:1018A0002FEF4FEF5FEF61010894C108D1088E015F
:1018B0000F5F1F4F1D99A1C020FD5FC02E7F4F9964
:1018C0009FC021FD45C02D7F4E990CC080E090E067
:1018D00031E04E9930E0019684369105D1F73323FB
:1018E00009F090C04E155F0589F0F701EE0FFF1F5C
:1018F000E80DF91D80819181B8012B870E9430038A
:10190000C80161E00E948D01A7012B85A3E2B4EF1D
:101910001197F1F700C000004B9BCCCF80E02B96D5
:101920000FB6F894DEBF0FBECDBFCF91DF911F91F0
:101930000F91FF90EF90DF90CF90BF90AF909F906E
:101940008F907F906F905F904F903F902F90089571
:101950008FE191EAA7E081509040A040E1F700C0FC
:1019600000004F9903C000004F9BFDCF0894E10891
:10197000F108F7FEA8CF7601A6CF8FE191EAA7E0A4
:1019800081509040A040E1F700C000001D9903C0C5
:1019900000001D9BFDCF0894E11CF11CE214F30430
:1019A00009F08CCFEE24FF2489CF2101662477240F
:1019B000A02EBE2CEE24FF2487016E010894C11CCA
:1019C000D11CD5018D919D915D01B6010E9430031E
:1019D000C60169857A8548E050E00E94E1140097CD
:1019E00009F45CCF0894E11CF11C011D111DE414E5
:1019F000F5040605170528F34FCF21604F9B61CFF3
:101A0000226062CF4E9903C000004E9BFDCFF701CC
:101A1000EE0FFF1FE80DF91D808191818E010F5F90
:101A20001F4FB8010E94300339852A85832F922FDA
:101A3000DC01F80188E001900D928150E1F781E02E
:101A40006ECFCF92DF92EF92FF920F931F93DF93AF
:101A5000CF93CDB7DEB766970FB6F894DEBF0FBE53
:101A6000CDBFC82E1092610880E185B982E08BB9A4
:101A700000E0F2E3EF2E12E1EBB881E090E00E948B
:101A8000FB131BB981E090E00E94FB130F5F083C41
:101A900099F71BB880E040E050E0BA010E94B00224
:101AA00004C00E945502813089F04B9BFACF6696A4
:101AB0000FB6F894DEBF0FBECDBFCF91DF911F915F
:101AC0000F91FF90EF90DF90CF90089582E08BB957
:101AD00002E04B99ECCF1BB887E340E050E0BA013D
:101AE0000E94B0020E94E1028F3F09F38E7F89F7C6
:101AF0000BB91BB889E240E050E0BA010E94B00285
:101B00000E94E102882321F08F3F89F20BB9E1CFD7
:101B100080E145E050E060E070E00E94F30266E39F
:101B200070E080E090E00E942303E2E0EE2EF12CD2
:101B3000EC0EFD1E8E01095F1F4F0E948902F70106
:101B400081937F01E017F107C1F70E9489020E948B
:101B500089028A81863409F4C5C180E144E050E0FD
:101B600060E070E00E94F30266EC71E080E090E0DB
:101B70000E9423030E94890290E0A0E0B0E08093DD
:101B80000D0890930E08A0930F08B09310080E94C0
:101B9000890290E0A0E0B0E02227382F492F5A2F89
:101BA00080910D0890910E08A0910F08B091100837
:101BB000820F931FA41FB51F80930D0890930E08EA
:101BC000A0930F08B09310080E94890290E0A0E053
:101BD000B0E0AC013327222780910D0890910E08C8
:101BE000A0910F08B0911008820F931FA41FB51F7A
:101BF00080930D0890930E08A0930F08B0931008DF
:101C00000E94890280910D0890910E08A0910F0802
:101C1000B091100859E0880F991FAA1FBB1F5A9551
:101C2000D1F780930D0890930E08A0930F08B093FE
:101C300010080E9489020E9489024B9938CF80E1E6
:101C400043E050E060E070E00E94F30260910D0814
:101C500070910E0880910F0890911008635F7F4F7C
:101C60008F4F9F4F0E9423030E948902898389819D
:101C700080930908109218018981813069F091E000
:101C800001C0922F8981869589838981292F2F5FB1
:101C90008130B9F7909318010E948902E82EFF2441
:101CA0000E948902D82E0E9489020E9489023D2D3D
:101CB00020E0C9018E0D9F1DA0E0B0E049E0880F33
:101CC000991FAA1FBB1F4A95D1F720910D0830918B
:101CD0000E0840910F0850911008820F931FA41F07
:101CE000B51F8093050890930608A0930708B0934A
:101CF00008084B99DCCE80E142E050E060E070E003
:101D00000E94F30260910D0870910E0880910F08F7
:101D1000909110086A5E7F4F8F4F9F4F0E94230360
:101D20000E9489028093FC071092FD070E9489029D
:101D3000382F20E08091FC079091FD07820F931FC0
:101D40009093FD078093FC070E9489020E948902FC
:101D50008091FC079091FD07A0E0B0E03AE0880F89
:101D6000991FAA1FBB1F3A95D1F720910508309102
:101D700006084091070850910808820F931FA41F7E
:101D8000B51F8093130890931408A0931508B0937F
:101D900016088050904CAF4FBF4F8093010890932E
:101DA0000208A0930308B09304084B9980CE2FE05B
:101DB000E22EF12CEC0EFD1E84E091E060E070E07C
:101DC000A70120E00E9465039093F9078093F8072C
:101DD000DD24D394F2E080309F0709F4DD24CC2089
:101DE00009F0ECC0CC240E94570182E291E00E94ED
:101DF0007B01DD2009F0EAC0CC2009F0D5C020E04D
:101E000030E080E091E06FE578E0A8010E94650392
:101E10009C0190930C0880930B0882E020303807D7
:101E200009F493C04B9943CEDD2009F474C0CC2053
:101E300041F4C801B70148E050E00E94E114009766
:101E400009F16091F8077091F907660F771F6295A5
:101E50007295707F7627607F762780E090E02091F2
:101E60001308309114084091150850911608620F1C
:101E7000731F841F951FA80128E030E00E94BB0556
:101E80000E943F060E945701C80160E00E948D0138
:101E90008FEF8093FE0780930A081092FB07109241
:101EA000FA07109260081092000801E000931208EF
:101EB000109211081092FF071092190110921F0141
:101EC00080E291E0909318088093170880E140E049
:101ED00052E060E070E00E94F3020E94B0010093C3
:101EE0006108E5CD8B81813409F037CE8C81843552
:101EF00009F033CE8D81813309F02FCE8E81863368
:101F000009F02BCE10920D0810920E0810920F08B7
:101F10001092100892CEC80164E071E040E050E0F9
:101F20000E94C80684E091E060E070E0A80121E032
:101F30000E9465039C019093F9078093F80782E063
:101F40002030380709F49ECF72CF88E091E060E03E
:101F500070E0A8012D2D0E9465039093F7078093F0
:101F6000F607E2E080309E0709F4A1CDC80160E0E9
:101F700071E040E352E00E94C806009709F497CD53
:101F800080E091E06FE578E0A8012D2D0E946503C7
:101F900090930C0880930B08F2E080309F0709F4BF
:101FA00086CD0E9448083ECFD801F70188E0019015
:101FB0000D928150E1F721E030E023CF80E291E003
:101FC0006D2DA7010E94160CC82E0DCFD801F70168
:101FD00088E001900D928150E1F7EDCF4B9B0EC050
:101FE00080E090E0A5E0B0E04B9B07C00197A1091D
:101FF000B10909F438C04B99F9CF08954E9B11C02F
:10200000809161088823C9F780E090E0A5E0B0E006
:1020100005C00197A109B10909F43DC04B9BF9CF57
:102020000895309BEDCF80E090E021E04E9920E0D4
:10203000019684369105D1F72223F9F24E9903C017
:1020400000004E9BFDCFF89481E00E94210D80910D
:102050006108882331F080916E00816080936E006A
:10206000E89A7894089580916E008E7F80936E0038
:10207000E898109261081092120880910D0188234F
:1020800009F4BBCF0E94570183E391E00E947B01DA
:1020900010920D010895F89480E00E94210D809126
:1020A0006108882331F080916E00816080936E001A
:1020B000E89A789481E080930D010895CF92DF92A1
:1020C000EF92FF920F931F93CF93DF93C82E162F9B
:1020D000D42E309118014B992EC1C42FD0E0C29557
:1020E000D295D07FDC27C07FDC27C60FD11D7E01B3
:1020F000032E02C0F694E7940A94E2F7C70163E264
:1021000070E00E94BA14262F8091FE078617B9F05E
:102110006093FE074091090850E0415D5D4F02C0A9
:10212000559547953A95E2F780910B0890910C08E8
:1021300069E178E003E20E94FA0430911801C701D6
:1021400063E270E00E94BA14880F991F875E974F70
:10215000FC014081518182E08BB91BB84250504054
:1021600060E070E004C0440F551F661F771F3A956A
:10217000D2F78091090890E001978C239D23A0E07D
:10218000B0E0480F591F6A1F7B1FA9E0440F551F7D
:10219000661F771FAA95D1F78091010890910208D8
:1021A000A0910308B0910408480F591F6A1F7B1FB4
:1021B00088E10E94F3028FEF0E943D028EEF0E94A1
:1021C0003D0280EB90E030E120E33BB92BB9019771
:1021D000E1F71BB883E00E943D028CEF0E943D02B4
:1021E0008FEF0E943D028FE30E943D028FEC0E9420
:1021F0003D0283EF0E943D028CEF0E943D028FEF73
:102200000E943D028FE30E943D028FEC0E943D023E
:1022100083EF0E943D028CEF0E943D0285ED0E94FB
:102220003D028AEA0E943D0286E90E943D028FEF4C
:102230000E943D028EEF0E943D028D2D86958A6A96
:102240000E943D028D2D8A6A0E943D02812F869553
:102250008A6A0E943D02812F8A6A0E943D020EEF27
:1022600001270D25802F86958A6A0E943D02802FC6
:102270008A6A0E943D028EED0E943D028AEA0E9417
:102280003D028BEE0E943D028FEF0E943D028FEFD8
:102290000E943D028FEF0E943D028FEF0E943D029F
:1022A0008FEF0E943D02DD248EE591E0C89EF00193
:1022B000C99EF00DD89EF00D1124E05EFE4F20E087
:1022C00030E0B0E2A0E170E3619188E090E040E8A6
:1022D00005C0ABB97BB94695019741F0542F562301
:1022E000C1F71BB8BBB946950197C1F72F5F3F4FA8
:1022F00081E02D35380741F71BB880E790E030E1E9
:1023000020E33BB92BB90197E1F71BB880E093E0DC
:1023100020E21BB82BB90197E1F71BB88FEF0E94A1
:102320003D028FEF0E943D020E9489020E94A90295
:1023300082E08BB91BB8DF91CF911F910F91FF9075
:10234000EF90DF90CF900895AF92BF92DF92EF921F
:10235000FF920F931F93DF93CF930F92CDB7DEB70A
:102360004B990CC093E1A92E91E0B92EF501819112
:102370008F3F79F481E0E831F807C9F70F90CF91EA
:10238000DF911F910F91FF90EF90DF90BF90AF9082
:1023900008958AE1E82E81E0F82E02E211E090E053
:1023A000DD24DA94F50160816F3F39F0892FF70160
:1023B000408199830E945E109981F501D1925F015D
:1023C000F701D1927F01F80110829F5F025A1E4FE0
:1023D000953041F71092190180E291E0909318082E
:1023E00080931708CBCFAF92BF92CF92DF92EF923C
:1023F000FF920F931F93CF93DF9380E184B99AE309
:1024000097B992E39AB985B982E088B98BB917BCBC
:1024100014BC91E095BD85BF809369001092FF07C1
:10242000109261081092600810925F081092FB07EA
:102430001092FA0710920008909312081092110857
:102440001092190110921F0180E291E090931808F8
:10245000809317080E9416010E9457018CEC90E0AF
:102460000E947B0180E061E00E945E018DED90E0C2
:102470000E947B018FE39BE4ACE481509040A0403C
:10248000E1F700C00000E0E1FE2E73E2A72EB12CC0
:102490006BE8E62E0E94EE0F309B05C015B80E9437
:1024A000EE0F3099FBCFF5B883B18F708093110197
:1024B00090911201891771F080931201883009F40C
:1024C000ACC0843009F4C7C0823009F4C6C0813082
:1024D00009F4C5C0809161088823E1F28091120857
:1024E0008823C1F2F8943091FF073F5F3F7030932B
:1024F000FF071091110816951695C12FD0E0C295CF
:10250000D295D07FDC27C07FDC27C30FD11DE0919F
:1025100018016E010E2E02C0D694C7940A94E2F7F9
:10252000C601B5010E94BA14262F8091FE078617B6
:10253000B9F06093FE074091090850E0415D5D4F9E
:1025400002C055954795EA95E2F780910B08909166
:102550000C0869E178E003E20E94FA043091FF0779
:10256000C601B5010E94BA14880F991F875E974F64
:10257000DC01CD90DC90119780911301831709F451
:1025800070C080911401831709F473C08091150104
:10259000831709F477C080911601831709F47BC073
:1025A00080911701831709F47FC0B6016250704013
:1025B00080E090E00090180104C0660F771F881F2C
:1025C000991F0A94D2F72091090830E02150304039
:1025D0002C233D2340E050E0620F731F841F951FA2
:1025E00029E0660F771F881F991F2A95D1F7209140
:1025F0000108309102084091030850910408620FCD
:10260000731F841F951F0E9423031092FB071092D3
:10261000FA071092120878943DCF92E08091110849
:10262000980F9770E92FE695F0E0E859FF4FE49195
:1026300090FFE295EF70E3FDE86FE80FE09311087B
:10264000E53C18F01092110845CFEC3808F442CF61
:10265000E09211083FCF94E0E1CF96E0DFCF90E029
:10266000DDCF80911A01811709F08BCF0E94A41150
:102670009CCF80911B018117C9F3809115018317AD
:1026800009F089CF80911C01811781F38091160197
:10269000831709F085CF80911D01811739F380914F
:1026A0001701831709F081CF80911E01811709F06E
:1026B0007CCF0E94A41179CFCF93DF934B9914C0A4
:1026C00030911901832F90E0CEE5D1E08C9FF0018D
:1026D0008D9FF00D9C9FF00D1124E05EFE4F228136
:1026E0002D3A09F1263919F0DF91CF9108952EE5A1
:1026F00031E0829FF001839FF00D929FF00D112435
:10270000E05EFE4F878190E085759070880F991F7D
:1027100020852575282B2093100181E080931F01CF
:10272000DF91CF91089520911F01222371F520910F
:10273000FF07FC01ED5EFE4F2083FC01E65EFE4FCD
:10274000809111088695869580832F30D1F12D30A8
:10275000C1F12F5F2F702093FF073430A9F13F5F45
:1027600030931901832F90E02EE531E0829FF00134
:10277000839FF00D929FF00D1124E05EFE4FF093C9
:102780001808E09317082281ADCF80911001809343
:10279000FF0710921F018F3009F0A6CF0E94E001C1
:1027A00081E0809312088091190190E08C9FF001E4
:1027B0008D9FF00D9C9FF00D1124E05EFE4F228155
:1027C00091CF2E5F2F70C7CF0E94E0010E94A4110D
:1027D00081E0809312088091190190E02EE531E0AC
:1027E000829FF001839FF00D929FF00D1124E05E17
:1027F000FE4F228177CF28E100002A95E9F7019763
:10280000D1F7089500000000000000000000000063
:102810000000000000000895AF93AFB7AF93BF93DF
:102820002F93A091600820915F08A22BA8B9A9EB73
:10283000A6BD20E0E7DFA0915F08A8B9B09112081B
:10284000BB2341F0209360082F91BF91AF91AFBFA0
:10285000AF911895A0E3ABB9A9B1A170AA0F2A2F27
:10286000A0E1ABB9A091FA07B091FB071196A09334
:10287000FA07B093FB07A03989F4BC3079F4A1E0E2
:10288000A0931208CF93C0E7A8E0B0E3BBB9B0E1D2
:10289000BBB9AA95D1F7CA95B9F7CF912093600833
:1028A0002F91BF91AF91AFBFAF9118952F932FB7D5
:1028B0002F9330995BC03F933091000826B124706C
:1028C0002327E1F326B124702093000828E02A95FD
:1028D000F1F700004F935F936F937F938F93EF9384
:1028E000FF9360E0E0911708F09118083DE541E0A2
:1028F0000DC05091000876B174707527E1F376B180
:102900007470709300087EE07A95F1F727E081E01B
:1029100079B17470D9F4000000007BE17A95F1F789
:1029200076B1747050910008709300087527769501
:102930007695880F872B2A9559F7853D09F461E034
:102940006030B9F281933150404099F69F93AF9334
:10295000BF930E945C13BF91AF919F91FF91EF9144
:102960008F917F916F915F914F913F912F912FBFE9
:102970002F911895AA1BBB1B51E107C0AA1FBB1FB3
:10298000A617B70710F0A61BB70B881F991F5A95FB
:10299000A9F780959095BC01CD01089597FB092E6C
:1029A00007260AD077FD04D0E5DF06D000201AF410
:1029B000709561957F4F0895F6F7909581959F4F9B
:1029C0000895FB01DC0104C08D910190801921F470
:1029D00041505040C8F7881B990B0895F894FFCFD9
:1029E0004E4943004254460044534B00FE01FFFF52
:00000001FF
