:100000000C94A2000C9481140C94BF000C94BF00BB
:100010000C94BF000C94BF000C94BF000C94BF0064
:100020000C94BF000C94BF000C94BF000C94BF0054
:100030000C94BF000C94BF000C94BF000C94BF0044
:100040000C9437140C94BF000C94BF000C94BF00A8
:100050000C94BF000C94BF000C94BF000C94BF0024
:100060000C94BF000C94BF000FED032196979A9B50
:100070009D9E9FA6A7ABACADAEAFB2B3B4B5B6B7BD
:10008000B9BABBBCBDBEBFCBCDCECFD3D6D7D9DAE4
:10009000DBDCDDDEDFE5E6E7E9EAEBECEDEEEFF2F7
:1000A000F3F4F5F6F7F9FAFBFCFDFEFF000D0B0982
:1000B000070503010E0C0A080604020F00020103E3
:1000C000000201030008040C0020103020202053FF
:1000D0004449534B32204C43442020200020627975
:1000E000204170706C6520494920425220004D6FBC
:1000F000756E7465642000204469736B203A20009B
:100100004C6F61642020204469726563746F72795A
:100110000053656C6563742061204469736B203AF9
:1001200020004C6F6164696E67202E2E2E2E2E2EBD
:100130002E2E002020204E6F2053442043617264F5
:100140002020200011241FBECFEFD8E0DEBFCDBF9E
:1001500011E0A0E0B1E0E6E3FAE202C005900D9202
:10016000A031B107D9F718E0A0E1B1E001C01D92BC
:10017000A236B107E1F70E941A120C9419150C94DB
:100180000000459880FF15C0419A81FF15C0439A31
:1001900082FF15C05C9A83FD15C05D98459A88E082
:1001A0008A95F1F70000459888E08A95F1F70000FC
:1001B0000895419881FDEBCF439882FDEBCF5C9889
:1001C00083FFEBCF5D9AEACF1F93182F599A44987B
:1001D00082958F700E94C100812F8F700E94C10094
:1001E0001C7F41F480E899E20197F1F700C000001C
:1001F0001F91089586E791E00197F1F700C0000094
:100200001F9108951F93182F599A449A82958F70C1
:100210000E94C100812F8F700E94C10080E792E090
:100220000197F1F700C000001F91089544988FE8EE
:1002300090EDA3E081509040A040E1F700C00000A5
:1002400083E00E94C100A1E1BAE71197F1F700C075
:10025000000083E00E94C10081E19AE70197F1F775
:1002600000C0000083E00E94C100A1E1BAE711973D
:10027000F1F700C0000082E00E94C10081E19AE72E
:100280000197F1F700C0000088E20E94E40088E0D6
:100290000E94E40081E00E94E40082E00E94E40009
:1002A00086E00E94E4008CE00E94E400089581E072
:1002B0000E94E40082E00E94E40008958F7060FFD5
:1002C00004C080540E94E400089580580E94E40015
:1002D00008950E9402010895CF93DF93EC01888175
:1002E000882331F021960E94020189918823D9F751
:1002F000DF91CF910895CF93DF93EC01FC018491BE
:10030000882341F021960E940201FE0121968491EA
:100310008823C9F7DF91CF9108951F93CF93DF937F
:10032000EC016623A1F40E94570180E061E00E9485
:100330005E018EEE90E00E947B0118E089910E94A0
:1003400002011150D9F7DF91CF911F91089580E0FC
:1003500061E00E945E0187EF90E00E947B01EDCF9B
:1003600020E030E04EE551E0249FF001259FF00DA4
:10037000349FF00D1124E05EFE4F80E090E011927A
:10038000019661E08E359607D1F72F5F3F4F2530FC
:10039000310551F78FEF80931A01809313018093F9
:1003A0001B018093140180931C018093150180939D
:1003B0001D018093160180931E01809317010895FB
:1003C0008091FA079091FB072CE080399207D0F4D6
:1003D00020ED2BB940E18031940770F44B9914C0A3
:1003E00030EF20ED02C04B990EC03BB92BB90196FE
:1003F00040E180319407B8F380E99CE09093FB07DB
:100400008093FA07089508950895CF92DF92EF92AE
:10041000FF920F931F93CF93DF93082FC8E0D0E094
:1004200010E830ECC32E20EED22E90EDE92E80EFB6
:10043000F82E0DC0EBB881E090E00E942714FBB8C5
:1004400081E090E00E9427141695219781F0812F7A
:10045000802381F7CBB881E090E00E942714DBB8BD
:1004600081E090E00E9427141695219781F780EC97
:100470008BB9DF91CF911F910F91FF90EF90DF909B
:10048000CF90089528E030E090E8E0EC70EE60ED69
:1004900050EF06C06BB95BB996952150304049F0DA
:1004A000492F4823B9F7EBB97BB9969521503040D5
:1004B000B9F780EC8BB90895FF920F931F93DF93E8
:1004C000CF930F92CDB7DEB780ED8BB981E090E08E
:1004D0000E94271419828981883001F110E040EFD1
:1004E000F42E00EDFBB881E090E00E94271489B162
:1004F000110F8170182B0BB981E090E00E94271436
:1005000089818F5F89838981883061F7812F0F907E
:10051000CF91DF911F910F91FF90089510E0F6CFDA
:10052000DF93CF930F92CDB7DEB780ED8BB91982F1
:100530008981883099F080E030EF20ED3BB999B1A6
:10054000880F9170892B2BB999819F5F998399812D
:100550009830A1F70F90CF91DF91089580E0FACF06
:100560000E9490024B9902C08F3FD1F708951F93CC
:10057000DF93CF9300D000D0CDB7DEB7182F8FEF29
:100580004C835B836A8379830E940502812F805CA0
:100590000E9405027981872F0E9405026A81862FB9
:1005A0000E9405025B81852F0E9405024C81842FE9
:1005B0000E94050285E90E9405028FEF0E94050254
:1005C0000F900F900F900F90CF91DF911F91089592
:1005D0000E945C024B9903C087FDFACF08958FEF0C
:1005E00008950E9490024B9903C087FDFACF0895A9
:1005F0008FEF0895DF92EF92FF920F931F93E0E445
:10060000DE2ED80EE72EF62E052F142F8FEF0E9428
:1006100042028D2D0E9442028E2D0E9442028F2D99
:100620000E944202802F0E944202812F0E944202B9
:1006300085E90E9442028FEF0E9442020E94F1026D
:10064000882311F08F3F11F71F910F91FF90EF90CA
:10065000DF900895AB01BC0181E10E94FA0202C063
:100660008E3F21F00E9490024B9BFACF08950F938A
:100670001F93CF93DF938C01EB0180E148E050E0C2
:1006800060E070E00E94FA02000F111F02951295BF
:10069000107F1027007F1027B80180E090E02091A4
:1006A0001308309114084091150850911608620FF4
:1006B000731F841F951F0E942A0308E00E94900266
:1006C00089930150D9F70E9490020E949002DF9115
:1006D000CF911F910F9108952F923F924F925F9269
:1006E0006F927F928F929F92AF92BF92CF92DF9242
:1006F000EF92FF920F931F93DF93CF93CDB7DEB7A7
:1007000068970FB6F894DEBF0FBECDBF1C012B015A
:100710005B8B4A8B2E8BEE24FF2487011D8A1C8A5B
:10072000188E1F8A40E052E0598B488BCC24DD2480
:1007300098E0692E712C6C0E7D1E88E0882E912C1D
:10074000860C971C4B99F0C080E141E050E060E0DE
:1007500070E00E94FA026091130870911408809171
:100760001508909116086E0D7F1D801F911F0E9425
:100770002A030E949002A82E0E9490020E949002DA
:10078000AA2009F4AEC05A2D553009F4AAC05E3231
:1007900009F4A7C0553E09F4A4C08A2D81548A31BA
:1007A00020F08F5E8A3008F09CC060911308709131
:1007B00014088091150890911608655F7F4F8F4F40
:1007C0009F4F6E0D7F1D801F911F0E942A030E9464
:1007D0009002A82E0E9490020E9490028A2D8E7193
:1007E00009F07FC08A2D8F3009F47BC080E14CE096
:1007F00050E060E070E00E94FA026091130870918E
:10080000140880911508909116086E0D7F1D801FA9
:10081000911F0E942A0353010E949002D5018D93DB
:100820005D01A815B905C1F70E9490028D830E9451
:1008300090028E830E9490028F834114510409F428
:100840009FC00E9490028170880F880F880FF2016C
:1008500080830E9490020E94900280E144E050E078
:1008600060E070E00E94FA02609113087091140831
:1008700080911508909116086A5E7F4F8F4F9F4FA9
:100880006E0D7F1D801F911F0E942A030E949002FF
:1008900089830E9490028A830E9490028B830E9427
:1008A00090028C830E9490020E949002CE010596D5
:1008B000B10143E050E00E940C15009791F4FE89CD
:1008C000FF2309F04DC029813A818B819C81AC893D
:1008D000BD89A817B90708F45CC08A179B0709F4FB
:1008E00052C00894C11CD11C80E290E0A0E0B0E0AE
:1008F000E80EF91E0A1F1B1F90E0C91692E0D906E8
:1009000009F020CFA889B989E2E0A030BE0749F0FC
:100910004A895B894115510521F05E89552309F407
:100920003FC02889398902C020E032E0C9016896B9
:100930000FB6F894DEBF0FBECDBFCF91DF911F91F0
:100940000F91FF90EF90DF90CF90BF90AF909F906E
:100950008F907F906F905F904F903F902F90089571
:100960004A895B894115510509F4BBCFC301BA011E
:1009700048E050E00E940C15009709F0B2CFA3CFD9
:100980000E94900266CFEF89F88D2E173F0708F47A
:10099000A8CFD98AC88A9D8B8C8B388F2F8BA1CFFB
:1009A00080E148E050E060E070E00E94FA0268896F
:1009B0007989660F771F62957295707F7627607FC1
:1009C000762780E090E02091130830911408409140
:1009D000150850911608620F731F841F951F0E94FF
:1009E0002A03EA88FB88A8E0CA2E0E949002D70159
:1009F0008D937D01CA94C9F70E9490020E949002D3
:100A000090CF4F925F926F927F928F929F92AF9210
:100A1000BF92CF92DF92EF92FF920F931F93CF93EB
:100A2000DF93EC012B014A01F22E702E4B9B11C07B
:100A3000DF91CF911F910F91FF90EF90DF90CF90BA
:100A4000BF90AF909F908F907F906F905F904F90EE
:100A5000089580E142E050E060E070E00E94FA0218
:100A600060911308709114088091150890911608F0
:100A7000665E7F4F8F4F9F4F9E01220F331F22953F
:100A80003295307F3227207F3227442737FD40952B
:100A9000542F620F731F841F951F0E942A030E9408
:100AA0009002C82FD0E00E949002382F20E0C20FA1
:100AB000D31F0E9490020E949002FF2009F44EC0B2
:100AC00000E010E0662406C0FFEFC73FDF07F0F547
:100AD000FE14E0F108151905C8F50F5F1F4FC80196
:100AE000672D762D0E94F9145C01E62EBE0180E090
:100AF00090E0660F771F881F991F2091050830919D
:100B000006084091070850910808620F731F841F60
:100B1000951F0E942A030E949002C82FD0E00E94D5
:100B20009002D82ECC24CC0DDD1D0E9490020E9494
:100B30009002EF1449F6F501EE0FFF1FE40DF51DCD
:100B4000D183C083FFEFC73FDF0710F280E140E0B1
:100B500052E060E070E00E94FA026ACFF201D183B5
:100B6000C083AECF4115510561F0A62FB72FE82FF6
:100B7000F92F80E090E02D9121930196841795073D
:100B8000D0F308954F925F926F927F928F929F92CF
:100B9000AF92BF92CF92DF92EF92FF920F931F938B
:100BA000CF93DF935B016C01542E452E89014B9B43
:100BB00011C0DF91CF911F910F91FF90EF90DF90C7
:100BC000CF90BF90AF909F908F907F906F905F90ED
:100BD0004F90089580E140E052E060E070E00E94B4
:100BE000FA02612C5EEF752E5FEF852E5FEF952E7A
:100BF0006A207B208C209D20C401B3010E942A031F
:100C0000C0E2D1E07E010E949002F70181937F0152
:100C1000F0E2EF16F3E0FF06B1F70E9490020E94A7
:100C20009002F501F170E05EFE4F0115110559F0DB
:100C3000C201A92FB42D80E090E02D91219301965F
:100C400080179107D0F382EC8BB980EC8BB988E1E7
:100C5000B401A3010E94FA028FEF0E9442028EEFBC
:100C60000E94420289910E94420283E0C032D8076A
:100C7000C9F78FEF0E9442028FEF0E9442020E944A
:100C800090020E94B00282EC8BB980EC8BB991CFBC
:100C90008F929F92AF92BF92CF92DF92EF92FF928C
:100CA0000F931F93CF93DF93C0900508D090060851
:100CB000E0900708F09008084B9B0DC0DF91CF91A2
:100CC0001F910F91FF90EF90DF90CF90BF90AF906A
:100CD0009F908F90089580E140E052E060E070E0E6
:100CE0000E94FA028091FC079091FD07009731F372
:100CF000AA24BB24A2EC9A2EF0EC8F2EC701B601D9
:100D00000E942A03C0E2D1E08E010E949002D80125
:100D10008D938D01B3E000321B07B9F70E9490025A
:100D20000E9490029BB88BB84091FC075091FD0740
:100D300060E070E0E9E0440F551F661F771FEA95F9
:100D4000D1F74C0D5D1D6E1D7F1D88E10E94FA02DA
:100D50008FEF0E9442028EEF0E94420289910E9410
:100D60004202E3E0C032DE07C9F78FEF0E94420281
:100D70008FEF0E9442020E9490020E94B0029BB834
:100D80008BB80894A11CB11C8091FC079091FD07C1
:100D9000A816B90608F092CF80E092E0A0E0B0E09B
:100DA000C80ED91EEA1EFB1EA9CF3F924F925F923A
:100DB0006F927F928F929F92AF92BF92CF92DF926B
:100DC000EF92FF920F931F93DF93CF93CDB7DEB7D0
:100DD000A4970FB6F894DEBF0FBECDBF2A014B9982
:100DE0003CC155E0A52EB12CAC0EBD1EA5019E0147
:100DF0002B5D3F4FD5011D92A217B307E1F7A82F36
:100E0000B92FC50108962D91FA012193AF01E8177A
:100E1000F907C9F7DB018C918D8711968C91119799
:100E20008E8712968C918F87C201A0E0B0E049E0D6
:100E3000880F991FAA1FBB1F4A95D1F7F501848F10
:100E4000958FA68FB78FEE24FF248701CC24DD2455
:100E500011C00894C11CD11C80E290E0A0E0B0E079
:100E6000E80EF91E0A1F1B1F90E0C91692E0D90672
:100E700009F4F3C080E141E050E060E070E00E94DE
:100E8000FA026091130870911408809115089091EE
:100E900016086E0D7F1D801F911F0E942A030E945D
:100EA0009002982E0E9490020E9490026091130876
:100EB000709114088091150890911608655F7F4F16
:100EC0008F4F9F4F6E0D7F1D801F911F0E942A0321
:100ED0000E949002882E0E9490020E949002F92D9A
:100EE000F53E19F0992009F0B4CF882D8F3009F420
:100EF000B0CF6091130870911408809115089091FB
:100F000016086E0D7F1D801F911FA50120E230E0A5
:100F10000E94C2054114510409F4C2C0A0901308F4
:100F2000B0901408C0901508D09016088AE190E09F
:100F3000A0E0B0E0A80EB91ECA1EDB1EAE0CBF1C9E
:100F4000C01ED11E82E090E0A0E0B0E089839A83C9
:100F5000AB83BC838091090890E00197840D951DB7
:100F60000090180102C0969587950A94E2F70097C1
:100F700009F48EC000E010E04E010894811C911C21
:100F80001CC089819A81AB81BC810196A11DB11DD4
:100F900089839A83AB83BC838091090890E0019791
:100FA000840D951D0090180102C0969587950A94AE
:100FB000E2F70817190708F06BC080E142E050E043
:100FC00060E070E00E94FA0269817A818B819C81E5
:100FD000660F771F881F991F20910508309106081A
:100FE0004091070850910808620F731F841F951FD6
:100FF0000E942A030E949002E82EFF240E94900281
:10100000382E0E9490020E949002732C6624E60CF7
:10101000F71CE114F10409F0B4CF0F5F1F4FC601B4
:10102000B501A40122E030E00E94C20589819A81C5
:10103000AB81BC815C016D01AA0CBB1CCC1CDD1C0E
:101040002091050830910608409107085091080842
:10105000A20EB31EC41ED51E98CF20E030E0C901F9
:10106000A4960FB6F894DEBF0FBECDBFCF91DF912F
:101070001F910F91FF90EF90DF90CF90BF90AF90B6
:101080009F908F907F906F905F904F903F900895CA
:10109000C601B5014EE051E022E030E00E94C205F9
:1010A0000E94480621E030E0DACF2F923F924F9223
:1010B0005F926F927F928F929F92AF92BF92CF92E8
:1010C000DF92EF92FF920F931F93DF93CF93CDB7F1
:1010D000DEB72B970FB6F894DEBF0FBECDBFE0E2B0
:1010E000AE2EE3E0BE2E85B1806385B98FEF80938D
:1010F0000A088093FE07AE82BF82EA2DFB2D8FEF98
:10110000819393E0E633F907D9F793E090933603A0
:101110009CEF90933703809338034FE34093390358
:101120003FEC30933A0323EF20933B0390933C032F
:1011300080933D0340933E0330933F03209340034D
:101140009093410345ED409342039AEA9093430301
:1011500026E9209344033EED30934D0390934E03D4
:101160002BEE20934F038093500380935103809381
:1011700052038093530380935403409355039093F9
:1011800056038DEA809357033093AF049093B004D5
:101190002093B104E2EBF4E08FEF8193A4E0E03C14
:1011A000FA07D9F71192B5E0E032FB07D9F780E1F1
:1011B00040E052E060E070E00E94FA022224332412
:1011C0006624772472E1472E512C10EC60EEF62E47
:1011D00050EDE52E40EFD42E3D822C8295B120E3D8
:1011E000922795B9E62DE695EA6AE983222433240D
:1011F000F62DFA6AF8879EEF96259987D301A29576
:10120000B295B07FBA27A07FBA27BB87AA87822D65
:10121000F101E455FF4FC4904B997CC020FC93C072
:1012200086958C809D80880E911CE0911801C401E8
:101230000E2E02C0969587950A94E2F79B838A83C7
:10124000B2010E94E514262F80910A088617B9F092
:1012500060930A084091090850E0495E5E4F02C061
:1012600055954795EA95E2F78091F6079091F70733
:1012700060E275E002E10E940105E09118018A81B7
:101280009B81B2010E94E514880F991F805E9A4FDE
:10129000DC012D913C912250304040E050E004C0F0
:1012A000220F331F441F551FEA95D2F7809109087A
:1012B00090E0019788219921A0E0B0E0280F391F24
:1012C0004A1F5B1F89E0220F331F441F551F8A9559
:1012D000D1F78091010890910208A0910308B09184
:1012E0000408280F391F4A1F5B1FCA01B9010E9459
:1012F0002A0380E291E04C010BC00E949002F401AD
:1013000081934F01F0E28F16F3E09F0609F45BC171
:101310004B9BF3CF2B960FB6F894DEBF0FBECDBF1D
:10132000CF91DF911F910F91FF90EF90DF90CF90C1
:10133000BF90AF909F908F907F906F905F904F90F5
:101340003F902F90089520E232E08C2D90E09B8317
:101350008A838FEFD50195968C939597EEEF9696AD
:10136000EC939697F9819796FC9397978885989632
:101370008C9398978A819B81969587958A6A99968E
:101380008C9399978C2D8A6A9A968C939A979985C3
:101390009C25892F86958A6A9B968C939B979A6A3F
:1013A0009C969C93A9014A5A5F4F68E573E0D90166
:1013B00000E080E090E0490119C0FD01E555FF4FD4
:1013C000E081F0E0E370F070E853FF4FE4912E2BE2
:1013D0000227E02FF0E0E459FF4F3491FB013193F5
:1013E000BF01019686359105C1F0022FED91F0E025
:1013F000E370F070E054FF4F3491FA012191AF0196
:10140000E22FF0E0E370F070EC53FF4F2491232BB8
:101410008435910590F2E0E0DACFC22E9401AEEA75
:10142000B3E09C2D01C0982FF90181919F01869511
:101430008695E92FE827F0E0E459FF4FE491ED931A
:10144000F4E0AE3ABF0779F7E82FF0E0E459FF4F38
:10145000E491E093AE048A849B848A819B81880E08
:10146000991E30911801D401032E02C0B695A7959C
:101470000A94E2F7BB83AA83CD0163E270E00E9485
:10148000E514262F8091FE078617B9F06093FE07BA
:101490004091090850E0415D5D4F02C05595479568
:1014A0003A95E2F780910B0890910C0869E178E099
:1014B00003E20E940105309118018A819B8163E259
:1014C00070E00E94E514880F991F875E974FFC011A
:1014D0004081518182EC8BB91BB94250504060E091
:1014E00070E004C0440F551F661F771F3A95D2F76E
:1014F0008091090890E0019788219921A0E0B0E04F
:10150000480F591F6A1F7B1FE9E0440F551F661FD4
:10151000771FEA95D1F78091010890910208A09178
:101520000308B0910408480F591F6A1F7B1F88E108
:101530000E94FA028FEF0E9442028EEF0E94420246
:101540009E818F81E92FF82F4B99E4CE419188E05D
:1015500090E020E805C0EBB8DBB82695019741F094
:10156000322F3423C1F71BB9FBB826950197C1F779
:1015700085E0E032F80741F71BB98FEF0E94420285
:101580008FEF0E9442020E9490020E94B00282EC01
:101590008BB91BB90894211C311C90E12916310428
:1015A00009F035CE0894611C711CAC81BD81189680
:1015B000BD83AC83B3E26B16710409F00FCE0E94B9
:1015C000B0012C98A7CE0E9490020E94900220E2C7
:1015D00031E0BBCE2F923F924F925F926F927F92FB
:1015E0008F929F92AF92BF92CF92DF92EF92FF9233
:1015F0000F931F93DF93CF93CDB7DEB765970FB6E9
:10160000F894DEBF0FBECDBF1C013B0180E060E05F
:101610000E945E0180E091E00E947B01EE24FF24A5
:101620008701AA24BB24CC24DD244E010894811C0C
:10163000911C4B99FCC080E141E050E060E070E01B
:101640000E94FA02609113087091140880911508A5
:10165000909116086E0D7F1D801F911F0E942A0316
:101660000E949002482E0E9490020E949002442004
:1016700009F468C0842D853009F464C08E3209F401
:1016800061C0853E09F45EC081548A3120F08F5ECE
:101690008A3008F057C06091130870911408809147
:1016A000150890911608655F7F4F8F4F9F4F6E0D05
:1016B0007F1D801F911F0E942A030E949002482EC6
:1016C0000E9490020E949002842D8E71D9F5942D73
:1016D0009F30C1F180E143E050E060E070E00E94A3
:1016E000FA02609113087091140880911508909186
:1016F0001608685F7F4F8F4F9F4F6E0D7F1D801FB5
:10170000911F0E942A030E94900289830E949002E6
:101710008A830E9490028B830E9490020E94900212
:10172000C401B30143E050E00E940C15009751F44E
:10173000F501EE0FFF1FE20DF31DD182C082089468
:10174000A11CB11C0894C11CD11C80E290E0A0E057
:10175000B0E0E80EF91E0A1F1B1F90E0C91692E0C8
:10176000D90609F066CF2501A2E0AA16B10408F453
:1017700061C0F5013297FD8BEC8B4501089481081F
:1017800091086624772414E0C12ED12CCC0EDD1EE6
:10179000BCE0AB2EB12CAC0EBD1E81149104D1F176
:1017A0008101A1E0EA2EF12C08C00894E11CF11C93
:1017B0000E5F1F4F8E149F0468F1D80112968D9111
:1017C0009C911397B6010E943703F80180819181A3
:1017D000B5010E943703C601B50148E050E00E9400
:1017E0000C1597FFE2CFD80112968D919C9113971B
:1017F0002D913C91119713963C932E93129711962D
:101800009C938E930894E11CF11C0E5F1F4F8E1465
:101810009F0498F60894611C711C08948108910833
:10182000EC89FD89E615F70508F0B7CF03C0412C18
:10183000F2E05F2EC20165960FB6F894DEBF0FBED0
:10184000CDBFCF91DF911F910F91FF90EF90DF906F
:10185000CF90BF90AF909F908F907F906F905F9050
:101860004F903F902F9008952F923F924F925F920A
:101870006F927F928F929F92AF92BF92CF92DF92A0
:10188000EF92FF920F931F93DF93CF93CDB7DEB705
:101890002B970FB6F894DEBF0FBECDBF082FE92EF1
:1018A000C62E49875A87882E992EC40160E071E0C0
:1018B0000E94EA0A1C0180E060E00E945E0181E172
:1018C00091E00E947B012114310409F445C0CC2031
:1018D00009F089C0EE24FF244B993EC02FEF4FEF53
:1018E0005FEF61010894C108D1088E010F5F1F4F9F
:1018F0001D99A1C020FD5FC02E7F4F999FC021FD83
:1019000045C02D7F4E990CC080E090E031E04E99AB
:1019100030E0019684369105D1F7332309F090C069
:101920004E155F0589F0F701EE0FFF1FE80DF91D59
:1019300080819181B8012B870E943703C80161E043
:101940000E948D01A7012B85A3E2B4EF1197F1F757
:1019500000C000004B9BCCCF80E02B960FB6F894D4
:10196000DEBF0FBECDBFCF91DF911F910F91FF90D2
:10197000EF90DF90CF90BF90AF909F908F907F902F
:101980006F905F904F903F902F9008958FE191EA74
:10199000A7E081509040A040E1F700C000004F99BF
:1019A00003C000004F9BFDCF0894E108F108F7FE4B
:1019B000A8CF7601A6CF8FE191EAA7E081509040B1
:1019C000A040E1F700C000001D9903C000001D9B6E
:1019D000FDCF0894E11CF11CE214F30409F08CCF54
:1019E000EE24FF2489CF210166247724A02EBE2C6B
:1019F000EE24FF2487016E010894C11CD11CD5017F
:101A00008D919D915D01B6010E943703C6016985E4
:101A10007A8548E050E00E940C15009709F45CCFED
:101A20000894E11CF11C011D111DE414F5040605C8
:101A3000170528F34FCF21604F9B61CF226062CF03
:101A40004E9903C000004E9BFDCFF701EE0FFF1F24
:101A5000E80DF91D808191818E010F5F1F4FB80144
:101A60000E94370339852A85832F922FDC01F801E4
:101A700088E001900D928150E1F781E06ECFCF9226
:101A8000DF92EF92FF920F931F93DF93CF93CDB727
:101A9000DEB766970FB6F894DEBF0FBECDBFC82E77
:101AA0001092610880E385B982EC8BB910E042EFB7
:101AB000E42E02EDEBB881E090E00E9427140BB910
:101AC00081E090E00E9427141F5F183C99F780EC9A
:101AD0008BB980E040E050E0BA010E94B70204C038
:101AE0000E945C02813089F04B9BFACF66960FB65C
:101AF000F894DEBF0FBECDBFCF91DF911F910F9144
:101B0000FF90EF90DF90CF90089582EC8BB900ECBE
:101B100012EC4B99EBCF0BB987E340E050E0BA01F0
:101B20000E94B7020E94E8028F3F01F38E7F89F77F
:101B30001BB90BB989E240E050E0BA010E94B7023C
:101B40000E94E802882321F08F3F81F21BB9E1CF88
:101B500080E145E050E060E070E00E94FA0266E358
:101B600070E080E090E00E942A0332E0E32EF12C46
:101B7000EC0EFD1E8E01095F1F4F0E949002F701BF
:101B800081937F01E017F107C1F70E9490020E9444
:101B900090028A81863409F4C5C180E144E050E0B6
:101BA00060E070E00E94FA0266EC71E080E090E094
:101BB0000E942A030E94900290E0A0E0B0E080938F
:101BC0000D0890930E08A0930F08B09310080E9480
:101BD000900290E0A0E0B0E02227382F492F5A2F42
:101BE00080910D0890910E08A0910F08B0911008F7
:101BF000820F931FA41FB51F80930D0890930E08AA
:101C0000A0930F08B09310080E94900290E0A0E00B
:101C1000B0E0AC013327222780910D0890910E0887
:101C2000A0910F08B0911008820F931FA41FB51F39
:101C300080930D0890930E08A0930F08B09310089E
:101C40000E94900280910D0890910E08A0910F08BB
:101C5000B0911008E9E0880F991FAA1FBB1FEA95F1
:101C6000D1F780930D0890930E08A0930F08B093BE
:101C700010080E9490020E9490024B9937CF80E199
:101C800043E050E060E070E00E94FA0260910D08CD
:101C900070910E0880910F0890911008635F7F4F3C
:101CA0008F4F9F4F0E942A030E949002898389814F
:101CB00080930908109218018981813069F091E0C0
:101CC00001C0922F8981869589838981292F2F5F71
:101CD0008130B9F7909318010E949002E82EFF24FA
:101CE0000E949002D82E0E9490020E9490023D2DE8
:101CF00020E0C9018E0D9F1DA0E0B0E079E0880FC3
:101D0000991FAA1FBB1F7A95D1F720910D0830911A
:101D10000E0840910F0850911008820F931FA41FC6
:101D2000B51F8093050890930608A0930708B09309
:101D300008084B99DBCE80E142E050E060E070E0C3
:101D40000E94FA0260910D0870910E0880910F08B0
:101D5000909110086A5E7F4F8F4F9F4F0E942A0319
:101D60000E9490028093FC071092FD070E9490024F
:101D7000382F20E08091FC079091FD07820F931F80
:101D80009093FD078093FC070E9490020E949002AE
:101D90008091FC079091FD07A0E0B0E06AE0880F19
:101DA000991FAA1FBB1F6A95D1F720910508309192
:101DB00006084091070850910808820F931FA41F3E
:101DC000B51F8093130890931408A0931508B0933F
:101DD00016088050904CAF4FBF4F809301089093EE
:101DE0000208A0930308B09304084B997FCE5FE0EC
:101DF000E52EF12CEC0EFD1E84E091E060E070E039
:101E0000A70120E00E946C039093F9078093F807E4
:101E1000DD24D394F2E080309F0709F4DD24CC2048
:101E200009F0ECC0CC240E94570182E291E00E94AC
:101E30007B01DD2009F0EAC0CC2009F0D5C020E00C
:101E400030E080E091E06FE578E0A8010E946C034B
:101E50009C0190930C0880930B0882E02030380797
:101E600009F493C04B9942CEDD2009F474C0CC2014
:101E700041F4C801B70148E050E00E940C150097FA
:101E800009F16091F8077091F907660F771F629565
:101E90007295707F7627607F762780E090E02091B2
:101EA0001308309114084091150850911608620FDC
:101EB000731F841F951FA80128E030E00E94C2050F
:101EC0000E9448060E945701C80160E00E948D01EF
:101ED0008FEF8093FE0780930A081092FB07109201
:101EE000FA07109260081092000811E0109312088F
:101EF000109211081092FF071092190110921F0101
:101F000080E291E0909318088093170880E140E008
:101F100052E060E070E00E94FA020E94B00110936B
:101F20006108E4CD8B81813409F037CE8C81843512
:101F300009F033CE8D81813309F02FCE8E81863327
:101F400009F02BCE10920D0810920E0810920F0877
:101F50001092100892CEC80164E071E040E050E0B9
:101F60000E94D50684E091E060E070E0A80121E0E5
:101F70000E946C039C019093F9078093F80782E01C
:101F80002030380709F49ECF72CF88E091E060E0FE
:101F900070E0A8012D2D0E946C039093F7078093A9
:101FA000F607E2E080309E0709F4A0CDC80160E0AA
:101FB00071E040E352E00E94D506009709F496CD07
:101FC00080E091E06FE578E0A8012D2D0E946C0380
:101FD00090930C0880930B08F2E080309F0709F47F
:101FE00085CD0E9455083ECFD801F70188E00190C9
:101FF0000D928150E1F721E030E023CF80E291E0C3
:102000006D2DA7010E94340CC82E0DCFD801F70109
:1020100088E001900D928150E1F7EDCF4B9B0EC00F
:1020200080E090E0A5E0B0E04B9B07C00197A109DC
:10203000B10909F438C04B99F9CF08954E9B11C0EE
:10204000809161088823C9F780E090E0A5E0B0E0C6
:1020500005C00197A109B10909F43DC04B9BF9CF17
:102060000895309BEDCF80E090E021E04E9920E094
:10207000019684369105D1F72223F9F24E9903C0D7
:1020800000004E9BFDCFF89481E00E943F0D8091AF
:102090006108882331F080916E00816080936E002A
:1020A000E89A7894089580916E008E7F80936E00F8
:1020B000E898109261081092120880910D0188230F
:1020C00009F4BBCF0E94570183E391E00E947B019A
:1020D00010920D010895F89480E00E943F0D8091C8
:1020E0006108882331F080916E00816080936E00DA
:1020F000E89A789481E080930D010895CF92DF9261
:10210000EF92FF920F931F93CF93DF93C82E162F5A
:10211000D42E309118014B9935C1C42FD0E0C2950F
:10212000D295D07FDC27C07FDC27C60FD11D7E0172
:10213000032E02C0F694E7940A94E2F7C70163E223
:1021400070E00E94E514262F8091FE078617B9F0F3
:102150006093FE074091090850E0415D5D4F02C069
:10216000559547953A95E2F780910B0890910C08A8
:1021700069E178E003E20E94010530911801C7018E
:1021800063E270E00E94E514880F991F875E974F05
:10219000FC014081518182EC8BB980EC8BB94250BB
:1021A000504060E070E004C0440F551F661F771F69
:1021B0003A95D2F78091090890E001978C239D23EE
:1021C000A0E0B0E0480F591F6A1F7B1FE9E0440FF1
:1021D000551F661F771FEA95D1F7809101089091EE
:1021E0000208A0910308B0910408480F591F6A1F04
:1021F0007B1F88E10E94FA028FEF0E9442028EEF5D
:102200000E94420280EB90E030ED20EF3BB92BB909
:102210000197E1F780EC8BB983E00E9442028CEFDA
:102220000E9442028FEF0E9442028FE30E9442020C
:102230008FEC0E94420283EF0E9442028CEF0E94C8
:1022400042028FEF0E9442028FE30E9442028FEC13
:102250000E94420283EF0E9442028CEF0E944202DF
:1022600085ED0E9442028AEA0E94420286E90E94AB
:1022700042028FEF0E9442028EEF0E9442028D2D99
:1022800086958A6A0E9442028D2D8A6A0E944202C5
:10229000812F86958A6A0E944202812F8A6A0E9453
:1022A00042020EEF01270D25802F86958A6A0E9433
:1022B0004202802F8A6A0E9442028EED0E944202F0
:1022C0008AEA0E9442028BEE0E9442028FEF0E9435
:1022D00042028FEF0E9442028FEF0E9442028FEF74
:1022E0000E9442028FEF0E944202DD248EE591E0BF
:1022F000C89EF001C99EF00DD89EF00D1124E05E3D
:10230000FE4F20E030E010ECB0EEA0ED70EF6191F8
:1023100088E090E040E805C0ABB97BB946950197ED
:1023200041F0542F5623C1F71BB9BBB9469501970D
:10233000C1F72F5F3F4F81E02D35380741F780EC23
:102340008BB980E790E030ED20EF3BB92BB90197D6
:10235000E1F780EC8BB980E093E030EC20EE10ECFC
:102360003BB92BB90197D9F71BB98FEF0E944202F5
:102370008FEF0E9442020E9490020E94B00282EC03
:102380008BB91BB9DF91CF911F910F91FF90EF9007
:10239000DF90CF900895AF92BF92DF92EF92FF92BD
:1023A0000F931F93DF93CF930F92CDB7DEB74B9967
:1023B0000CC013E1A12E11E0B12EF50181918F3FE8
:1023C00079F481E0E831F807C9F70F90CF91DF91F8
:1023D0001F910F91FF90EF90DF90BF90AF90089505
:1023E000BAE1EB2EB1E0FB2E02E211E090E0DD2439
:1023F000DA94F50160816F3F39F0892FF701408150
:1024000099830E947E109981F501D1925F01F701B5
:10241000D1927F01F80110829F5F025A1E4F9530C2
:1024200041F71092190180E291E09093180880938F
:102430001708CBCF9F92AF92BF92CF92DF92EF92CD
:10244000FF920F931F93CF93DF9380E184B98AE3C8
:1024500087B982E38AB980E385B982E088B992ECD2
:102460009BB917BC14BC91E095BD85BF80936900F2
:102470001092FF07109261081092600810925F0896
:102480001092FB071092FA0710920008909312081E
:10249000109211081092190110921F0180E291E030
:1024A00090931808809317080E9416010E94570104
:1024B0008CEC90E00E947B0180E061E00E945E0174
:1024C0008DED90E00E947B018FE39BE4ACE48150B2
:1024D0009040A040E1F700C00000E0E2FE2E70E373
:1024E000E72E63E2A62EB12C5BE8952E0E940E101B
:1024F000309B05C0F5B80E940E103099FBCFE5B8AF
:1025000083B18F708093110190911201891771F03E
:1025100080931201883009F4ACC0843009F4C7C03C
:10252000823009F4C6C0813009F4C5C080916108C9
:102530008823E1F2809112088823C1F2F894309147
:10254000FF073F5F3F703093FF071091110816950A
:102550001695C12FD0E0C295D295D07FDC27C07FE1
:10256000DC27C30FD11DE09118016E010E2E02C0B1
:10257000D694C7940A94E2F7C601B5010E94E51407
:10258000262F8091FE078617B9F06093FE074091D1
:10259000090850E0415D5D4F02C055954795EA95A9
:1025A000E2F780910B0890910C0869E178E003E272
:1025B0000E9401053091FF07C601B5010E94E51494
:1025C000880F991F875E974FDC01CD90DC901197A3
:1025D00080911301831709F470C08091140183174F
:1025E00009F473C080911501831709F477C08091B5
:1025F0001601831709F47BC080911701831709F432
:102600007FC0B6016250704080E090E000901801F9
:1026100004C0660F771F881F991F0A94D2F7209174
:10262000090830E0215030402C233D2340E050E0A9
:10263000620F731F841F951F09E0660F771F881FA5
:10264000991F0A95D1F72091010830910208409115
:10265000030850910408620F731F841F951F0E9486
:102660002A031092FB071092FA071092120878942E
:102670003DCF92E080911108980F9770E92FE69571
:10268000F0E0E859FF4FE49190FFE295EF70E3FD31
:10269000E86FE80FE0931108E53C18F0109211087C
:1026A00045CFEC3808F442CF909211083FCF94E028
:1026B000E1CF96E0DFCF90E0DDCF80911A01811766
:1026C00009F08BCF0E94CB119CCF80911B01811709
:1026D000C9F380911501831709F089CF80911C01FE
:1026E000811781F380911601831709F085CF8091BE
:1026F0001D01811739F380911701831709F081CFEC
:1027000080911E01811709F07CCF0E94CB1179CFF7
:10271000CF93DF934B9914C030911901832F90E030
:10272000CEE5D1E08C9FF0018D9FF00D9C9FF00DC8
:102730001124E05EFE4F22812D3A09F1263919F06D
:10274000DF91CF9108952EE531E0829FF001839FC4
:10275000F00D929FF00D1124E05EFE4F878190E016
:1027600085759070880F991F20852575282B2093DB
:10277000100181E080931F01DF91CF910895209196
:102780001F01222371F52091FF07FC01ED5EFE4F32
:102790002083FC01E65EFE4F8091110886958695A8
:1027A00080832F30D1F12D30C1F12F5F2F70209316
:1027B000FF073430A9F13F5F30931901832F90E078
:1027C0002EE531E0829FF001839FF00D929FF00D86
:1027D0001124E05EFE4FF0931808E0931708228161
:1027E000ADCF809110018093FF0710921F018F30B1
:1027F00009F0A6CF0E94E00181E080931208809149
:10280000190190E08C9FF0018D9FF00D9C9FF00DC1
:102810001124E05EFE4F228191CF2E5F2F70C7CF33
:102820000E94E0010E94CB1181E080931208809108
:10283000190190E02EE531E0829FF001839FF00DB9
:10284000929FF00D1124E05EFE4F228177CF28E1A8
:1028500000002A95E9F70197D1F7089500000000DC
:102860000000000000000000000000000895AF9389
:10287000AFB7AF93BF932F93A091600820915F08EB
:10288000A22BA8B9A4EBA6BD20E0E8DFA0915F08C9
:10289000A8B9B0911208BB2341F0209360082F9192
:1028A000BF91AF91AFBFAF911895A0E3ABB9A9B1FC
:1028B000A170AA0F2A2FA0E1ABB9A091FA07B0919D
:1028C000FB071196A093FA07B093FB07A03989F490
:1028D000BC3079F4A1E0A0931208CF93C0E7A8E040
:1028E000B0E3BBB9B0E1BBB9AA95D1F7CA95B9F7C6
:1028F000CF91209360082F91BF91AF91AFBFAF915F
:1029000018952F932FB72F9330995BC03F93309139
:10291000000826B124702327E1F326B12470209308
:10292000000828E02A95F1F700004F935F936F931A
:102930007F938F93EF93FF9360E0E0911708F091FE
:1029400018083DE541E00DC05091000876B1747063
:102950007527E1F376B17470709300087EE07A9584
:10296000F1F727E081E079B17470D9F4000000003C
:102970007BE17A95F1F776B174705091000870930D
:102980000008752776957695880F872B2A9559F735
:10299000853D09F461E06030B9F2819331504040E7
:1029A00099F69F93AF93BF930E948813BF91AF9105
:1029B0009F91FF91EF918F917F916F915F914F91D7
:1029C0003F912F912FBF2F911895AA1BBB1B51E14F
:1029D00007C0AA1FBB1FA617B70710F0A61BB70B8F
:1029E000881F991F5A95A9F780959095BC01CD0134
:1029F000089597FB092E07260AD077FD04D0E5DF5E
:102A000006D000201AF4709561957F4F0895F6F76F
:102A1000909581959F4F0895FB01DC0104C08D9135
:102A20000190801921F441505040C8F7881B990B40
:062A30000895F894FFCFA9
:102A36004E4943004254460044534B00FE01FFFFFB
:00000001FF
